:020000040800F2
:1000000000500020613A000821050008230500087F
:100010002505000827050008290500080000000044
:100020000000000000000000000000002B05000898
:100030002D050008000000002F050008310500080C
:10004000A93A0008A93A0008A93A0008A93A000804
:10005000A93A0008A93A0008A93A0008A93A0008F4
:10006000A93A0008A93A0008A93A0008A93A0008E4
:10007000A93A0008A93A0008A93A0008A93A0008D4
:10008000A93A0008A93A000835050008A93A00086D
:10009000A93A0008A93A0008A93A0008A93A0008B4
:1000A000A93A00084D050008A93A0008A93A000835
:1000B000A93A0008A93A0008A93A00085D05000815
:1000C0006D050008A93A0008A93A0008A93A0008F5
:1000D00071050008A93A0008A93A0008A93A0008E1
:1000E000A93A0008A93A0008A93A0008000000004F
:1000F0000000000000000000000000000000000000
:0C01000000000000000000005FF808F1A3
:10010C0010B5054C237833B9044B13B10448AFF345
:10011C0000800123237010BD70000020000000003F
:10012C00E84A000808B5034B1BB103490348AFF379
:10013C00008008BD0000000074000020E84A0008A0
:10014C0084B00F4B9A6942F020029A619A6902F0CE
:10015C0020020192019A9A6942F004029A619A690A
:10016C0002F004020292029A9A6942F008029A6121
:10017C009B6903F008030393039B04B0704700BF13
:10018C0000100240F0B585B000250195029503954D
:10019C00134C144B23604FF48073A3600127277317
:1001AC0025754FF46023E3616560032626612046C4
:1001BC0000F05AFE019502970723039301A92046EC
:1001CC0000F0DEFC02230293039501A9204600F007
:1001DC00D7FC029601A9204600F0D2FC05B0F0BD78
:1001EC00740100200024014030B585B00023019338
:1001FC0002930393154C164A22604FF48072A2604E
:10020C00237323754FF46022E2616360032525613B
:10021C00204600F029FE04230193012302930723B7
:10022C00039301A9204600F0ABFC052301930223A4
:10023C00029301A9204600F0A3FC0623019302952A
:10024C0001A9204600F09CFC05B030BDF000002058
:10025C000028014008B50948094B0360094B43606D
:10026C0000238360C3604FF4804202614361836169
:10027C00C361036202F05EF808BD00BF20010020DC
:10028C0000540040801A060008B50B480B4B036065
:10029C004FF48273436000238360C3600361436146
:1002AC004FF400728261C3610362436283620A236A
:1002BC00C36202F026FF08BD980000200038004001
:1002CC0030B58DB00024089409940A940B940394CF
:1002DC00049405940694079401940294114D4FF0E4
:1002EC0080432B606C60AC604FF6FF73EB602C614D
:1002FC00AC61284603F04CF94FF48053089308A9DD
:10030C00284603F07CF90394049403A9284603F0CF
:10031C002AFA0194029401A9284603F04DFA0DB073
:10032C0030BD00BFE401002008B50848084B03604D
:10033C004FF4E133436000238360C36003610C22FC
:10034C0042618361C36103F0E9FA08BDA401002096
:10035C000038014008B50848084B03604FF4E133FE
:10036C00436000238360C36003610C22426183619C
:10037C00C36103F0D3FA08BD2C02002000440040F6
:10038C0030B595B000240D940F94109405940694F8
:10039C000794089409940194029403940494012200
:1003AC000A924FF480330B934FF400310C910E9260
:1003BC000225119512934FF4E01313930AA800F041
:1003CC009BFE0F230593069507944FF480630893C7
:1003DC000994294605A801F0D3F801954FF4004380
:1003EC00039301A801F0C6F915B030BD30B5ADF5D9
:1003FC009C4D8DB000F032FEFFF7C2FFFFF7A0FE60
:10040C00FFF7C0FEFFF7F0FEFFF724FFFFF73CFFFE
:10041C00FFF756FFFFF788FFFFF79CFF2C4800F013
:10042C00A7FD2C4C00224FF48071204601F0B8FB44
:10043C0001224FF40071204601F0B2FB01224FF46F
:10044C008061204601F0ACFB30E0214C204600F0EE
:10045C0071FC0121204600F051FA204600F004FB0B
:10046C0004AB23F81500013500F016FE6428ECD916
:10047C00002406E004AB33F81410174803F03CFBDF
:10048C000134A542F6D80A2003F04EFB00238DF868
:10049C000D308DF80E30FF230093032303AA4C215B
:1004AC000E4802F025F8642000F0FCFD0C4B1B6894
:1004BC00ADF80C301B0C8DF80E30FF23009303238A
:1004CC0003AA4C21054802F013F80025CCE700BF25
:1004DC0074010020000C0140004B0008200100209A
:1004EC00044B000810B514464FF0FF3392B202488B
:1004FC0003F043FA204610BDA401002008B50268A1
:10050C00034B9A4200D008BD00F0BAFDFBE700BFD8
:10051C00002C01407047FEE7FEE7FEE7FEE7704760
:10052C00704770477047000008B5034800F0A1FA07
:10053C00024800F09EFA08BD74010020F000002073
:10054C0008B5024802F02CFF08BD00BF6C02002069
:10055C0008B5024802F008FD08BD00BF20010020CC
:10056C007047000008B5024802F028FE08BD00BF25
:10057C009800002082B00E4B9A6942F001029A61F9
:10058C009A6902F001020092009ADA6942F08052F4
:10059C00DA61DB6903F080530193019B054A5368D0
:1005AC0023F0E06343F00073536002B0704700BF68
:1005BC00001002400000014000B589B000230493F4
:1005CC000593069307930368284A934205D0284A5B
:1005DC00934226D009B05DF804FB264B9A6942F48D
:1005EC0000729A619A6902F400720092009A9A69F8
:1005FC0042F004029A619B6903F004030193019B8E
:10060C00012304930323059304A91B4801F0B8F9B3
:10061C0000221146122001F02BFB122001F05CFB92
:10062C00D8E7144B9A6942F480629A619A6902F491
:10063C0080620292029A9A6942F004029A619B6962
:10064C0003F004030393039B702304930323059388
:10065C0004A9094801F094F900221146122001F076
:10066C0007FB122001F038FBB4E700BF0024014067
:10067C0000280140001002400008014010B586B06F
:10068C00002302930393049305930268194B9A4237
:10069C0001D006B010BD184CA36943F00803A36148
:1006AC00A36903F008030093009BC0230293122359
:1006BC0003930323059302A9104801F061F9E36940
:1006CC0043F40013E361E36903F400130193019B0A
:1006DC00002211461F2001F0CBFA1F2001F0FCFA7A
:1006EC0000221146202001F0C3FA202001F0F4FA78
:1006FC00CFE700BF0054004000100240000C014046
:10070C0030B587B0002302930393049305930268DA
:10071C001B4B9A4201D007B030BD03F5EC33DA69BC
:10072C0042F48042DA61DA6902F480420092009A63
:10073C009A6942F008029A619B6903F008030193DD
:10074C00019B4FF42043029302230393032305934D
:10075C000C4D02A9284601F013F94FF48043029383
:10076C0000240394049402A9284601F009F92246B6
:10077C002146242001F07CFA242001F0ADFACAE7CE
:10078C0000380040000C01400368B3F1804F00D0EA
:10079C00704782B003F50433DA6942F00102DA6182
:1007AC00DB6903F001030193019B02B07047000069
:1007BC0010B588B000230493059306930793036840
:1007CC002C4A934204D02C4A93422BD008B010BD33
:1007DC002A4B9A6942F480429A619A6902F48042E7
:1007EC000092009A9A6942F004029A619B6903F0A4
:1007FC0004030193019B4FF40073049302230593AC
:10080C00032307931E4C04A9204601F0B9F84FF4BA
:10081C008063049300230593069304A9204601F0FA
:10082C00AFF8D3E7154BDA6942F40032DA61DA69D2
:10083C0002F400320292029A9A6942F004029A611E
:10084C009B6903F004030393039B04230493022387
:10085C000593032307930A4C04A9204601F090F852
:10086C000823049300230593069304A9204601F062
:10087C0087F8ABE70038014000440040001002400C
:10088C000008014000B589B001460022192001F092
:10089C00EFF9192001F020FA144B9A6942F4006226
:1008AC009A619B6903F400630193019B02A903A85D
:1008BC0000F042FF00F030FF0D4BA3FB00239B0C1C
:1008CC00013B0C480C4A026040F2E732C2604360C4
:1008DC0000230361836002F05BFE18B1012009B0B4
:1008EC005DF804FB034802F023FDF8E7001002401A
:1008FC0083DE1B436C020020002C0140F0B583B05A
:10090C0005460C460023019300F0C6FB2B689A6841
:10091C0012F4807F23D107465A6812F4807F03D1EA
:10092C00DB6A13F4700F24D04A4B1E68022000F0CF
:10093C00ABFFB6FBF0F02B681969474A11422FD177
:10094C00D96802F15C4211422AD11969434A114219
:10095C0039D1DA68424B1A4237D029263AE0AB6AD1
:10096C0043F02003AB62002385F82430012003B050
:10097C00F0BD2B681B6813F0020F48D1B4F1FF3F98
:10098C00F7D024B100F088FBC01BA042F1D9AB6AB0
:10099C0043F00403AB62002385F824300320E6E720
:1009AC0019692E4A114204D1D96802F16E421142E2
:1009BC000DD019692B4A0A405AB9DA68294B1340F1
:1009CC005BB1FC2606E0292604E0142602E054263E
:1009DC0000E0FC2606FB00F604E05426FAE7019B37
:1009EC0001330193019BB34211D2B4F1FF3FF6D016
:1009FC0024B100F051FBC31BA342F0D9AB6A43F006
:100A0C000403AB62002385F824300320AFE72B6886
:100A1C006FF012021A60AB6A43F40073AB622B687E
:100A2C009B6803F46023B3F5602F01D000209EE790
:100A3C00287B60B9AB6A23F48073AB62AB6A13F4A6
:100A4C00805F94D1AB6A43F00103AB628FE7002067
:100A5C008DE700BF080000202449922492244912FB
:100A6C0092244900499224000368D86C704770475F
:100A7C00704710B5044603685A6812F0200F18D05E
:100A8C001A6812F0020F14D0826A12F0100F03D100
:100A9C00826A42F4007282629A6802F46022B2F5B1
:100AAC00602F38D02046FFF7E2FF23686FF0120268
:100ABC001A6023685A6812F0800F22D01A6812F05C
:100ACC00040F1ED0A26A12F0100F03D1A26A42F4D6
:100ADC000052A2629A6802F4E042B2F5E04F31D0C3
:100AEC005A6812F4806F05D19A6802F46022B2F54C
:100AFC00602F24D0204600F0AFFA23686FF00C0270
:100B0C001A6023685A6812F0400F03D01B6813F068
:100B1C00010F28D110BD227B002AC3D15A6822F0C4
:100B2C0020025A60A36A23F48073A362A36A13F4AD
:100B3C00805FB7D1A36A43F00103A362B2E7227BC3
:100B4C00002AD7D15A6822F080025A60A36A23F493
:100B5C008053A362A36A13F4807FCBD1A36A43F0C2
:100B6C000103A362C6E7A36A43F48033A362204661
:100B7C00FFF77EFF23686FF001021A60CAE70000DE
:100B8C0030B482B00022019290F82420012A00F0A7
:100B9C008B800346012280F824204A68062A29D833
:100BAC000568686B02EB8202053A1F24944020EA28
:100BBC0004000C6804FA02F202436A630A68092A08
:100BCC0038D91D68E86802EB42021E3A07249440AB
:100BDC0020EA04008C6804FA02F20243EA600A6814
:100BEC00103A012A34D90020002283F8242002B0C4
:100BFC0030BC70470C2A0ED80568286B02EB8202B9
:100C0C00233A1F24944020EA04000C6804FA02F2F0
:100C1C0002432A63D2E70568E86A02EB8202413A92
:100C2C001F24944020EA04000C6804FA02F20243E8
:100C3C00EA62C3E71D68286902EB4202072494406C
:100C4C0020EA04008C6804FA02F202432A61C6E727
:100C5C001A681648824205D09A6A42F020029A62BB
:100C6C000120C1E7906810F4000F1BD1906840F48C
:100C7C00000090600A68102A01D00020B4E70C4AEA
:100C8C0012680C49A1FB0212920C02EB8202520078
:100C9C00019202E0019A013A0192019A002AF9D1DB
:100CAC000020A1E700209FE70220A0E700240140DC
:100CBC000800002083DE1B4330B583B00023019372
:100CCC0003689A6812F0010F2DD104469A6842F01D
:100CDC0001029A60154B1B68154AA2FB03239B0C5F
:100CEC000193019B1BB1019B013B0193F9E700F0C0
:100CFC00D3F9054623689B6813F0010F11D100F05E
:100D0C00CBF9431B022BF5D9A36A43F01003A36262
:100D1C00E36A43F00103E362002384F824300120EA
:100D2C0002E0002000E0002003B030BD08000020ED
:100D3C0083DE1B4390F82430012B68D010B5044699
:100D4C00012380F82430FFF7B7FF00285BD1A36A9A
:100D5C0023F4407323F0010343F48073A3622368EC
:100D6C002C4A934227D0A26A22F48012A2625A68BB
:100D7C0012F4806F05D0A26A22F4405242F48052E1
:100D8C00A262A26A12F4805F2BD0E26A22F0060201
:100D9C00E262002284F824206FF002021A602368B9
:100DAC009A6802F46022B2F5602F1DD09A6842F462
:100DBC0080129A602AE0A2F58062526812F4702FB9
:100DCC00D1D0A26A42F48012A262134A526812F481
:100DDC00806FD6D0A26A22F4405242F48052A262B2
:100DEC00CFE70022E262D4E70A4A934204D09A6821
:100DFC0042F4A0029A6009E0A2F58062526812F4F3
:100E0C00702FD3D1F3E7002384F8243010BD0220D7
:100E1C00704700BF002801400024014038B503682A
:100E2C009A6812F0010F01D1002038BD04469A686F
:100E3C0022F001029A6000F02FF9054623689B68A6
:100E4C0013F0010F0ED000F027F9431B022BF5D93C
:100E5C00A36A43F01003A362E36A43F00103E36265
:100E6C000120E2E70020E0E700287BD070B50446C3
:100E7C00836A002B4DD02046FFF7D0FFA36A13F0F6
:100E8C00100369D1002867D1A26A22F4885222F09B
:100E9C00020242F00202A2626268E1690A43217B0B
:100EAC0042EA4102A568B5F5807F02D0012D36D00B
:100EBC001D46267D012E35D02668716821F46941C6
:100ECC00294371602568AE68274931401143A960F8
:100EDC00A168B1F5807F01D0012902D12369013BC2
:100EEC001B052568E96A21F470010B43EB6223684A
:100EFC0099681E4B0B409A4225D0A36A23F012032B
:100F0C0043F01003A362E36A43F00103E3620120A0
:100F1C0027E0C36280F82430FFF74EFBABE74FF4B9
:100F2C008075C6E731B9A169013945EA413141F40F
:100F3C000065C1E7A16A41F02001A162E16A41F0BC
:100F4C000101E162B8E70023E362A36A23F0030323
:100F5C0043F00103A36204E0A36A43F01003A3620D
:100F6C00012070BD01207047FDF7E1FFFE0E1FFF51
:100F7C0070B582B00023019390F82430012B67D018
:100F8C000446012380F82430FFF748FF054628B1BA
:100F9C00002384F82430284602B070BDA36A23F4E1
:100FAC00885323F0020343F00203A362294B1E680B
:100FBC00022000F069FCB6FBF0F676000196019B6E
:100FCC001BB1019B013B0193F9E72046FFF774FE2F
:100FDC002268936843F00803936000F05DF80646BE
:100FEC0023689A6812F0080F0FD000F055F8801B98
:100FFC000A28F5D9A36A23F0120343F01003A36265
:10100C00002384F824300125C5E79A6842F00402D5
:10101C009A6000F041F8064623689B6813F0040FB1
:10102C000FD000F039F8801B0A28F5D9A36A23F0F9
:10103C00120343F01003A362002384F8243001252B
:10104C00A9E7A36A23F0030343F00103A3629FE71C
:10105C000225A0E7080000207047000008B5074AE9
:10106C00136843F010031360032000F0EFFD002021
:10107C00FFF708FCFFF77EFA002008BD00200240B5
:10108C00034A1168034B1B780B441360704700BF75
:10109C00B402002000000020014B1868704700BF0C
:1010AC00B402002038B50446FFF7F6FF0546B4F14C
:1010BC00FF3F02D0044B1B781C44FFF7EDFF401B95
:1010CC00A042FAD338BD00BF0000002082B0084B0C
:1010DC001B68084AA2FB03235B0A00FB03F3019382
:1010EC0000BF019B5A1E0192002BF9D102B0704730
:1010FC0008000020D34D6210002800F0F18170B57B
:10110C0082B00446036813F0010F2CD0AA4B5B6825
:10111C0003F00C03042B1DD0A74B5B6803F00C03EE
:10112C00082B12D06368B3F5803F41D0002B55D10A
:10113C0003F1804303F504331A6822F480321A60F9
:10114C001A6822F480221A6037E09B4B5B6813F418
:10115C00803FE7D0984B1B6813F4003F03D06368C3
:10116C00002B00F0BF81236813F0020F75D0924B57
:10117C005B6813F00C0F5FD08F4B5B6803F00C03B4
:10118C00082B54D02369002B00F089808B4B012253
:10119C001A60FFF781FF0546874B1B6813F0020F9F
:1011AC0074D1FFF779FF401B0228F5D903209EE18B
:1011BC00814A136843F480331360636843B3FFF7C9
:1011CC006BFF05467C4B1B6813F4003FCBD1FFF73C
:1011DC0063FF401B6428F5D9032088E1B3F5A02FE9
:1011EC0009D0754B1A6822F480321A601A6822F4FE
:1011FC0080221A60E1E703F18043A3F53C331A68BF
:10120C0042F480221A601A6842F480321A60D4E7E1
:10121C00FFF742FF0546684B1B6813F4003FA2D052
:10122C00FFF73AFF401B6428F5D903205FE1624BBE
:10123C005B6813F4803FA5D15F4B1B6813F0020F62
:10124C0003D02369012B40F04F815B4A136823F0D4
:10125C00F803616943EAC1031360236813F0080FB4
:10126C0032D0A369002B45D0554B01221A60FFF7F1
:10127C0013FF0546504B5B6A13F0020F21D1FFF7A9
:10128C000BFF401B0228F5D9032030E14A4A1368B2
:10129C0023F0F803616943EAC1031360DDE7474BB0
:1012AC0000221A60FFF7F8FE0546434B1B6813F04B
:1012BC00020FD2D0FFF7F0FE401B0228F5D9032015
:1012CC0015E10120FFF702FF236813F0040F00F073
:1012DC009780394BDB6913F0805F1DD1364BDA698F
:1012EC0042F08052DA61DB6903F080530193019B79
:1012FC00012512E0324B00221A60FFF7CDFE0546A5
:10130C002D4B5B6A13F0020FDED0FFF7C5FE401BBE
:10131C000228F5D90320EAE000252A4B1B6813F4B8
:10132C00807F11D0E368012B22D0002B38D103F140
:10133C00804303F504331A6A22F001021A621A6A16
:10134C0022F004021A6218E01E4A136843F48073F8
:10135C001360FFF7A1FE06461A4B1B6813F4807F3F
:10136C00E0D1FFF799FE801B6428F5D90320BEE07D
:10137C00114A136A43F001031362E36873B3FFF776
:10138C008BFE06460C4B1B6A13F0020F37D1FFF78E
:10139C0083FE801B41F288339842F3D90320A6E0E8
:1013AC00052B11D0044B1A6A22F001021A621A6A38
:1013BC0022F004021A62E0E70010024000004242F0
:1013CC0080044242007000404D4B1A6A42F0040205
:1013DC001A621A6A42F001021A62CEE7FFF75CFE4B
:1013EC000646474B1B6A13F0020F08D0FFF754FE5A
:1013FC00801B41F288339842F3D9032077E0E5B99A
:10140C00E369002B72D03E4A526802F00C02082AA3
:10141C0056D0022B17D03B4B00221A60FFF73CFE34
:10142C000446374B1B6813F0007F47D0FFF734FEA0
:10143C00001B0228F5D9032059E0314AD36923F067
:10144C008053D361DCE72F4B00221A60FFF724FE98
:10145C0005462B4B1B6813F0007F06D0FFF71CFED4
:10146C00401B0228F5D9032041E0236AB3F5803FE5
:10147C001AD023494B6823F47413226A606A02431E
:10148C0013434B601F4B01221A60FFF705FE044605
:10149C001B4B1B6813F0007F0ED1FFF7FDFD001BEB
:1014AC000228F5D9032022E0154A536823F40033AF
:1014BC00A1680B435360DCE7002018E0002016E025
:1014CC00012B16D00E4B5B6803F48031226A9142DB
:1014DC0011D103F47013626A93420ED1002006E01E
:1014EC0001207047012002E0012000E0002002B042
:1014FC0070BD0120FBE70120F9E70120F7E700BFF1
:10150C00001002406000424286B0184B0FCB0DF128
:10151C00180C0CE90F0040F20123ADF80430144B09
:10152C005A6802F00C03042B1AD0082B1AD1C2F300
:10153C008343634413F8101C12F4803F0CD00C4B03
:10154C005B68C3F34043634413F8143C094800FB45
:10155C0001F0B0FBF3F006E0074800FB01F002E0FD
:10156C00044800E0054806B0704700BF084B00086F
:10157C00001002400024F40000093D0000127A0023
:10158C00002800F0A08070B50D460446524B1B6835
:10159C0003F007038B420BD24F4A136823F0070367
:1015AC000B431360136803F007038B4240F08D80EC
:1015BC00236813F0020F17D013F0040F04D0474A1E
:1015CC00536843F4E0635360236813F0080F04D0AE
:1015DC00424A536843F460535360404A536823F0C3
:1015EC00F003A1680B435360236813F0010F31D053
:1015FC006368012B20D0022B25D0384A126812F0D8
:10160C00020F64D035494A6822F0030213434B6041
:10161C00FFF742FD0646314B5B6803F00C03626832
:10162C00B3EB820F16D0FFF737FD801B41F28833E6
:10163C009842F0D9032045E0284A126812F4003F82
:10164C00E0D101203EE0254A126812F0007FD9D18A
:10165C00012037E0204B1B6803F00703AB420AD98B
:10166C001D4A136823F007032B431360136803F020
:10167C000703AB422DD1236813F0040F06D0174A91
:10168C00536823F4E063E1680B435360236813F061
:10169C00080F07D0114A536823F46053216943EAB9
:1016AC00C1035360FFF730FF0C4B5B68C3F30313AC
:1016BC000B4AD35CD8400B4B18600B4B1868FFF7E8
:1016CC00E1F8002070BD012070470120FAE70120ED
:1016DC00F8E70120F6E700BF0020024000100240AE
:1016EC001C4B00080800002004000020014B186867
:1016FC00704700BF0800002008B5FFF7F7FF044B48
:10170C005B68C3F30223034AD35CD84008BD00BF17
:10171C00001002402C4B000808B5FFF7E7FF044B04
:10172C005B68C3F3C223034AD35CD84008BD00BF37
:10173C00001002402C4B00080F2303600B4B5A681F
:10174C0002F0030242605A6802F0F00282605A68AA
:10175C0002F4E062C2605B68DB0803F4E0630361DF
:10176C00034B1B6803F007030B607047001002402B
:10177C000020024070B582B00446036813F0010FDC
:10178C0034D03E4BDB6913F0805F47D13B4BDA69B9
:10179C0042F08052DA61DB6903F080530193019BC4
:1017AC000125374B1B6813F4807F39D0334B1B6AF0
:1017BC0013F4407311D0626802F440729A420CD058
:1017CC002E4A136A23F440702E4901260E6000261F
:1017DC000E60106213F0010F36D1284A136A23F4FD
:1017EC00407361680B431362002D3ED1236813F0E4
:1017FC00020F06D0214A536823F44043A1680B43DF
:10180C005360236813F0100F34D01C4A536823F430
:10181C008003E1680B43536000202CE00025C0E7F7
:10182C00174A136843F480731360FFF735FC0646C0
:10183C00134B1B6813F4807FB8D1FFF72DFC801B72
:10184C006428F5D9032016E0FFF726FC06460B4B5F
:10185C001B6A13F0020FC0D1FFF71EFC801B41F274
:10186C0088339842F3D9032005E0D36923F08053E1
:10187C00D361BBE7002002B070BD00BF0010024076
:10188C00007000404004424210B586B00446364B0E
:10189C000FCB0DF1180C0CE90F0040F20123ADF841
:1018AC000430022C51D0102C04D0012C2CD0002050
:1018BC0006B010BD2D4B5A68186810F08070F7D028
:1018CC00C2F3834306A90B4413F8100C12F4803FA7
:1018DC0016D0264B5B68C3F340430B4413F8142C0F
:1018EC00234BB3FBF2F300FB03F0204B5B6813F4C8
:1018FC00800FDDD140001F4BA3FB00304008D7E721
:10190C001D4B03FB00F0F0E7184B1B6A40F2023250
:10191C001A40B2F5817F23D003F44073B3F5007FF6
:10192C0004D0B3F5407F09D00020C1E70F4A526ABA
:10193C0012F0020FF5D049F64040B9E70B4B18688E
:10194C0010F40030B4D00D48B2E7FFF7E5FE074BBA
:10195C005B68C3F3813301335B00B0FBF3F0A7E7A3
:10196C004FF40040A4E700BF084B000800100240F1
:10197C000024F400ABAAAAAA00093D0048E8010023
:10198C00F0B482B000252C46A3E07F4FBB4210D0B0
:10199C0007D97E4FBB420CD007F58037BB4208D02D
:1019AC0013E0A7F58017BB4203D007F57027BB42A5
:1019BC0007D18B68002B58D0012B51D042610825E0
:1019CC0003E0A7F58017BB42F3D0FF2E4FD8844617
:1019DC00FF2E4FD8A200DCF800300F27974023EAE7
:1019EC00070305FA02F21343CCF800304B6813F0EE
:1019FC00805F6DD0664B9A6942F001029A619B69D7
:101A0C0003F001030193019BA208971C614B53F84F
:101A1C00273004F00307BF004FF00F0C0CFA07FC43
:101A2C0023EA0C0C5C4B98422AD003F58063984255
:101A3C0000F08A8003F58063984200F0878003F5FC
:101A4C00806398421AD004231BE0CD68BDE7CD68B3
:101A5C000435BAE7CD680835B7E7CD680C35B4E77F
:101A6C0002610825B1E70025AFE70425ADE700F1D9
:101A7C00040CADE7A4F108029200ACE7032300E0EC
:101A8C000023BB4043EA0C030232424F47F822309A
:101A9C004B6813F4803F5BD0404A136833431360A8
:101AAC004B6813F4003F59D03C4A5368334353609E
:101ABC004B6813F4801F57D0384A936833439360B4
:101ACC004B6813F4001F55D0344AD3681E43D660BC
:101ADC0001340B6833FA04F252D00122A24003EA1B
:101AEC00020632EA0303F3D14B68122B3FF64DAFDB
:101AFC00122B3FF66AAF01A757F823F0BF19000865
:101B0C00571A0008611A0008731A0008D719000840
:101B1C00D7190008D7190008D7190008D7190008D9
:101B2C00D7190008D7190008D7190008D7190008C9
:101B3C00D7190008D7190008D7190008D7190008B9
:101B4C005B1A0008671A000801239AE7022398E73A
:101B5C00124A136823EA06031360A1E70F4A53687D
:101B6C0023EA06035360A3E70C4A936823EA0603AF
:101B7C009360A5E7094AD36823EA0606D660A7E76F
:101B8C0002B0F0BC704700BF000022100000311002
:101B9C000010024000000140000801400004014018
:101BAC000AB10161704709040161704708B590F8EA
:101BBC002130022B03D004238363012008BD02686B
:101BCC00136823F00E0313600268136823F00103FB
:101BDC0013600368194A934214D0143293421FD0F5
:101BEC00143293421ED0143293421ED014329342BC
:101BFC001ED01432934202D04FF0807203E04FF4A7
:101C0C00801200E001220E4B5A60012380F8213033
:101C1C00002380F82030436B6BB198470020CDE750
:101C2C001022F0E74FF48072EDE74FF48052EAE7B0
:101C3C004FF48032E7E70020C0E700BF0800024005
:101C4C000000024090F8210070470000074AD3685A
:101C5C0023F4E0631B041B0C000200F4E06003435C
:101C6C0043F0BF6343F40033D360704700ED00E0F2
:101C7C0030B4174BDB68C3F30223C3F10704042C05
:101C8C0028BF04241D1D062D18D9033B4FF0FF352A
:101C9C0005FA04F421EA0401994005FA03F322EA57
:101CAC000303194300280BDB0901C9B200F16040A2
:101CBC0000F5614080F8001330BC70470023E5E765
:101CCC0000F00F000901C9B2024B1954F4E700BF30
:101CDC0000ED00E014ED00E0002807DB00F01F022F
:101CEC00400901239340024A42F82030704700BF5C
:101CFC0000E100E090F83E30DBB2402B10D00369DD
:101D0C00B3F5804F1BD0036D002B39D1436CC3F35B
:101D1C00C813026803F0060343F0F0031361704725
:101D2C00036D2BB9436C026803F0FE03136170471B
:101D3C00436C026843F00103DBB21361704790F807
:101D4C003D30DBB2212B0FD0436C026843F0010312
:101D5C00DBB21361436B6BB19B6A5BB10268536876
:101D6C0043F4006353607047436C026803F0FE0356
:101D7C001361EFE7836B33B19B6A002BEED102E06A
:101D8C00036D012B00D07047436CC3F3C81302687A
:101D9C0003F0060343F0F1031361F4E7436C0268AC
:101DAC00DBB21361436B3BB19B6A4BB10268536866
:101DBC0043F4006353607047826B002AF4D1FAE756
:101DCC00836B9B6A002BF1D1F5E710B48DB090F8C2
:101DDC003E30DAB2C16A046B90F83D30DBB2222B94
:101DEC000AD000230B9303685A690B929B690B93DF
:101DFC000B9B0DB010BC7047036D0BB9402A17D06C
:101E0C00036D1BB90369B3F5404F19D0438D9BB2D9
:101E1C00002B25D1039303685A6903929A690392A4
:101E2C00039A1A6842F400721A6000230365E0E713
:101E3C00019303685A6901929B690193019BD8E74E
:101E4C000023029303685A6902929A690292029AD9
:101E5C001A6842F480721A60036D01330365C8E797
:101E6C00438D9BB2012B25D0438D9BB2022B7BD093
:101E7C000268136843F48063136003685A6812F4B1
:101E8C00006F0ED011F5803F07D0012905D008292D
:101E9C0003D0102901D0202903D15A6842F4805272
:101EAC005A6000230A9303685A690A929B690A9341
:101EBC000A9BBAE711F5803F11D0082934D02029AC
:101ECC0032D0122C2ED0042940D002293ED0102919
:101EDC003CD00268136823F4806313603BE0026813
:101EEC00136823F48063136003685A6812F4006F5C
:101EFC000CD01A6822F480621A60002304930368E1
:101F0C005A6904929B690493049B8EE70022059204
:101F1C005A6905929A690592059A1A6842F40072F8
:101F2C001A6082E70129CED00268136823F480631B
:101F3C0013600023079303685A6907929A69079202
:101F4C00079A1A6842F400721A606EE70268136806
:101F5C0043F4806313600023069303685A69069266
:101F6C009B690693069B60E7042915D0022913D0C0
:101F7C00102911D00268136843F400631360002326
:101F8C00089303685A6908929A690892089A1A6821
:101F9C0022F480621A600CE00268136843F48063D8
:101FAC0013600023099303685A6909929B6909938A
:101FBC00099B03685A6812F4006F3FF436AF11F5B1
:101FCC00803F08D0012906D0082904D0102902D05E
:101FDC0020297FF42AAF5A6842F480525A6024E7D1
:101FEC00438D9BB25BB1426A036812781A61436AF3
:101FFC0001334362438D9BB2013B9BB243857047D7
:10200C00438D9BB25BB103681A69436A1A70436AC9
:10201C0001334362438D9BB2013B9BB243857047B6
:10202C0082B0002301930E4B1B68DB080D4AA2FB08
:10203C0003231B0A03EB83030193019B013B0193D5
:10204C00019B33B103681B6813F4007FF5D10020AA
:10205C0004E0036C43F020030364012002B07047DA
:10206C000800002089B5F81403685A6912F4806FCF
:10207C0001D1002070476FF480625A610023036322
:10208C00202280F83D2080F83E30026C42F00402A1
:10209C00026480F83C3001207047C36AB3F52A0F04
:1020AC0004D0C36AB3F12A4F03D070470123C36233
:1020BC0070470823C362F8E72DE9F04107460D4647
:1020CC0090461E4622E0FEF7E7FF069BC01AB04280
:1020DC0000D8DEB900233B63202287F83D2087F827
:1020EC003E303A6C42F020023A6487F83C300120D2
:1020FC001AE03B689C6925EA0404A4B2B4FA84F49F
:10210C006409A0450FD1B6F1FF3FDCD1C5F30743FD
:10211C00012BEED13B685C6925EA0404A4B2B4FA45
:10212C0084F46409EDE70020BDE8F0812DE9F0416D
:10213C0005460E46174698463DE01A6842F4007272
:10214C001A602B686FF480625A6100232B63202283
:10215C0085F83D2085F83E302A6C42F004022A6452
:10216C0085F83C30012034E0FEF796FFA0EB080028
:10217C00B84200D8FFB900232B63202285F83D20FC
:10218C0085F83E302A6C42F020022A6485F83C30F7
:10219C0001201EE02B689C6926EA0404A4B2003CD2
:1021AC0018BF0124A4B12B685A6912F4806FC4D1F2
:1021BC00B7F1FF3FD8D1C6F30743012BEAD12B6807
:1021CC005C6926EA0404A4B2003C18BF0124E9E7C8
:1021DC000020BDE8F0810000F0B583B004460D4648
:1021EC0016461F46C36A082B0DD0012B0BD013F5D6
:1021FC00803F08D0036B122B0AD10268136843F49A
:10220C008073136004E02268136843F480731360D6
:10221C000097334600224FF001112046FFF74CFF88
:10222C0080B92369B3F5804F16D1236805F0FE05FC
:10223C001D613B46324613492046FFF777FFF8B93C
:10224C0003B0F0BD23681B6813F4807F02D04FF4F9
:10225C00007323640320F3E7EB11226803F00603F9
:10226C0043F0F00313613B46324607492046FFF723
:10227C005DFF18B92368EDB21D61DAE70120DFE7D5
:10228C000120DDE7020001000800010070B50446E2
:10229C000D46164623685B6913F0800F1CD120464F
:1022AC00FFF7E2FED0B9B5F1FF3FF3D0FEF7F4FE35
:1022BC00801BA84201D8002DECD1002323632022DF
:1022CC0084F83D2084F83E30226C42F020022264D7
:1022DC0084F83C30012000E0002070BD0120FCE7B8
:1022EC0070B504460D46164623685B6913F0040F5F
:1022FC001CD12046FFF7B8FED0B9B5F1FF3FF3D0A3
:10230C00FEF7CAFE801BA84201D8002DECD1002399
:10231C002363202284F83D2084F83E30226C42F066
:10232C002002226484F83C30012000E0002070BDC3
:10233C000120FCE7002800F0CC80F8B5044690F8AA
:10234C003D30002B77D0242384F83D30226813686D
:10235C0023F0010313602268136843F400431360F5
:10236C002268136823F400431360FFF7C5F9626811
:10237C005A4B9A4264D85A4B98428CBF0023012383
:10238C00002B40F0A880574DA5FB0035AF0C2668FC
:10239C00716821F03F0141EA9541716021680B6A37
:1023AC0023F03F0365684D4A95424FD87A1C13437E
:1023BC000B622568E96921F44F4121F0FF01636844
:1023CC00464A93424CD801385B00B0FBF3F0013025
:1023DC0040F6FC73184278D0C0F30B030B43EB614F
:1023EC0021680B6823F0C003E269206A024313439F
:1023FC000B6021688B6823F4034323F0FF032269ED
:10240C00E068024313438B602168CB6823F0FF0321
:10241C006269A06902431343CB602268136843F0DE
:10242C000103136000202064202384F83D302063D6
:10243C0084F83E00F8BD80F83C30FEF71FF982E7C7
:10244C00294B98428CBF0023012399E74FF49672D5
:10245C0002FB07F2254DA5FB025292090132A6E7B9
:10246C00A268BAB9461E03EB4307B6FBF7F6013672
:10247C00C6F30B06B6FA86F6760946BBC2B9421EFF
:10248C0003EB4303B2FBF3F20132C2F30B0242F44F
:10249C000043A3E7461E03EB830707EB8707B6FB56
:1024AC00F7F60136C6F30B06B6FA86F67609E4E7BC
:1024BC00421E03EB830303EB8303B2FBF3F2013203
:1024CC00C2F30B0242F4404388E7042386E701235E
:1024DC0084E7012070470120ACE700BFA086010013
:1024EC007F841E0083DE1B43FF083D00D34D62102A
:1024FC002DE9F04385B004460F46914698460C9E54
:10250C00FEF7CAFD054694F83D00C0B2202804D061
:10251C000227384605B0BDE8F08300951923012247
:10252C004F492046FFF7C8FD002840F0928094F8F0
:10253C003C30012B00F08F80012384F83C30236861
:10254C001A6812F0010F03D11A6842F001021A60E6
:10255C002268136823F400631360212384F83D3050
:10256C00102384F83E3000232364C4F82490A4F88C
:10257C002A80638D23853B4BE3622B4632463946DA
:10258C002046FFF729FE0746002866D10023039357
:10259C0023685A6903929B690393039B11E0236C94
:1025AC00042B01D00127B4E72268136843F40073AD
:1025BC001360F7E72A4631462046FFF791FE0028C4
:1025CC002ED1238D002B36D02A4631462046FFF7DC
:1025DC005DFE0028E3D1626A236812781A61616A91
:1025EC004B1C6362638D9BB2013B9BB26385238D55
:1025FC00013B9BB223852268506910F0040FD9D09F
:10260C00002BD7D04B781361636A01336362638DFF
:10261C009BB2013B9BB26385238D013B2385C9E7AC
:10262C00236C042B01D0012773E72268136843F451
:10263C0000731360F7E72268136843F400731360A8
:10264C00202384F83D30002384F83E3084F83C305D
:10265C005FE702275DE702275BE7012759E700BF29
:10266C00020010000000FFFF704708B5C26A90F826
:10267C003D30DBB2212B00D008BD438D9BB263B142
:10268C00426A036812781A61436A01334362438DCC
:10269C009BB2013B9BB24385EEE7082A04D0202A6B
:1026AC0002D012F5803F13D10268536823F4E06323
:1026BC0053600268136843F40073136000230363D0
:1026CC00202280F83D2080F83E30FFF7CDFFD3E785
:1026DC000268536823F4E0635360112303630023FF
:1026EC0080F83E30202380F83D30FFF7BDFFC3E774
:1026FC007047704708B590F83D30DAB2438D9BB205
:10270C0083B1416A036809781961436A01334362F2
:10271C00438D9BB2013B9BB24385438D9BB20BB95E
:10272C00292A00D008BD0268536823F480635360E3
:10273C0021230363282380F83D30FFF7DAFFF1E70C
:10274C00704708B590F83D30DAB2438D9BB283B137
:10275C0003681969436A1970436A01334362438DF4
:10276C009BB2013B9BB24385438D9BB20BB92A2A8A
:10277C0000D008BD0268536823F4806353602223A1
:10278C000363282380F83D30FFF7DAFFF1E7704749
:10279C0008B590F83D3003F02803282B07D00368C8
:1027AC006FF002025A61002380F83C3008BD0268C9
:1027BC00536823F48063536011F0040F0BD0002393
:1027CC0011F0800F09D18289002180F83C10194644
:1027DC00FFF7DDFFEAE70123F2E7028BF4E770472E
:1027EC00704708B590F83D30026D9AB9C36C012B57
:1027FC0008D0836CC3F3072302681361036D0133A4
:10280C00036508BD836C0268DBB21361036D023390
:10281C000365F6E7DBB2026D012A23D0026D022AB2
:10282C00EFD1222B26D0428D92B20AB1212B27D088
:10283C00428D92B2002AE4D1212BE2D10268536876
:10284C0023F4E06353600268136843F4007313606D
:10285C0000230363202280F83D2080F83E30FFF7F0
:10286C00BFFFCEE7836C0268DBB21361036D0133EB
:10287C000365C6E70268136843F480731360C0E70E
:10288C00426A036812781A61436A01334362438DCA
:10289C009BB2013B9BB24385B3E710B590F83D303A
:1028AC00DBB290F83E20D2B2C46A018D09B9212B5B
:1028BC0004D0212B3BD0402A37D010BD082C04D09B
:1028CC00202C02D014F5803F19D10268536823F4F0
:1028DC00E06353600268136843F4007313600023D1
:1028EC000363202380F83D3090F83E30DBB2402B60
:1028FC0015D0002380F83E30FFF7B6FEDDE7026806
:10290C00536823F4E063536011230363002380F8BE
:10291C003E30202380F83D30FFF7A6FECDE70023A4
:10292C0080F83E30FFF75CFFC7E7222BC5D1438D03
:10293C009BB22BB90268536823F480635360BCE7E5
:10294C0090F83E30DBB2402B0CD0426A0368127810
:10295C001A61436A01334362438D9BB2013B9BB2C4
:10296C004385AAE7FFF73DFFA7E7704708B5C26AA2
:10297C00438D9BB2042B14D0438D9BB2032B22D0DE
:10298C00438D9BB2022B39D003681A69436A1A70C3
:10299C00436A01334362438D9BB2013B9BB2438537
:1029AC0010E00268536823F48063536003681A696B
:1029BC00436A1A70436A01334362438D9BB2013BF5
:1029CC009BB2438508BD01684B6823F480634B6060
:1029DC00042A06D0022A04D00268136823F4806308
:1029EC00136003681A69436A1A70436A01334362BD
:1029FC00438D9BB2013B9BB24385E3E7012A0BD08D
:102A0C00102A09D0042A38D0022A36D0026813685A
:102A1C0043F40073136004E00268136823F48063CA
:102A2C00136003681A69436A1A70426A531C436242
:102A3C00438D9BB2013B9BB2438503681B6953706A
:102A4C00436A01334362438D9BB2013B9BB2438586
:102A5C000268536823F440735360202380F83D30A0
:102A6C0090F83E30DBB2402B0DD0002380F83E3086
:102A7C0012230363FFF73CFEA4E70268136843F4D8
:102A8C0080631360CDE7002380F83E300363FFF7CB
:102A9C006CFF97E7704790F83D30DBB2222B00D0EB
:102AAC00704710B50446438D9BB2032B16D90368AF
:102ABC001A69436A1A70436A01334362438D9BB2AD
:102ACC00013B9BB24385438D9BB2032B00D010BDC1
:102ADC000268536823F480635360F8E7C26A022AE1
:102AEC00F5D0012BF3D8FFF79BFA00282ED12268E2
:102AFC00136823F4806313602268536823F4E06343
:102B0C00536023681A69636A1A70636A01336362DB
:102B1C00638D9BB2013B9BB26385202384F83D30CF
:102B2C0094F83E30DBB2402B08D0002384F83E30C2
:102B3C00122323632046FFF7DBFDC8E7002384F84C
:102B4C003E3023632046FFF710FFC0E7226853682E
:102B5C0023F4E063536023681A69636A1A70636A2A
:102B6C0001336362638D9BB2013B9BB2638520236F
:102B7C0084F83D30002384F83E302046FFF78AFF6E
:102B8C00A5E7704700B583B000230193406A90F825
:102B9C003D20D2B2324B1B68DB083249A1FB031338
:102BAC001B0A03EB8303C3EBC3030193019B43B1E8
:102BBC00019B013B019303681B6813F4007FF5D163
:102BCC0003E0036C43F020030364436B0BB100215F
:102BDC009962836B0BB10021996201680B6823F435
:102BEC0080630B6000234385436B0BB10021596359
:102BFC00836B0BB10021596301680B6823F001034F
:102C0C000B6090F83D30DBB2602B0ED002F0280246
:102C1C00282A14D0202380F83D30002380F83E3041
:102C2C00FFF738FF03B05DF804FB202380F83D303C
:102C3C00002380F83E300364FFF7A3FFF2E702683D
:102C4C00136843F0010313600268136843F4806354
:102C5C00136000230363282380F83D30E0E700BFB6
:102C6C000800002089B5F81410B5044690F83D30E2
:102C7C00DBB290F83E20D2B2102A35D0402A33D0A5
:102C8C0003F02802282A37D02268526812F4006F09
:102C9C0007D1602B05D0202384F83D30002384F825
:102CAC003E300023236323685A6812F4006F47D028
:102CBC005A6822F400625A60636B93F82120012A4F
:102CCC0020D0444A5A63606BFEF770FF002849D04D
:102CDC002268136823F001031360202384F83D302D
:102CEC00606B436B98473DE0222BC9D121680A6881
:102CFC0022F400620A60C3E700232363282384F8CC
:102D0C003D30D0E7A36B334A5A63A06BFEF74EFFFE
:102D1C0040B323685A6912F0400F05D01A69636AF0
:102D2C001A70636A013363622268136823F001032B
:102D3C001360202384F83D30A06B436B984711E05F
:102D4C0094F83D20D2B2602A1FD05A6912F0400F7D
:102D5C0005D01A69636A1A70636A0133636220468C
:102D6C00FFF798FE236C13F00F0F04D02268536802
:102D7C0023F4E063536094F83D30DBB2226C12F024
:102D8C00040F01D0282B18D010BD202284F83D2030
:102D9C00002222645A6912F0400F05D01A69636A46
:102DAC001A70636A013363622268136823F00103AB
:102DBC0013602046FFF7E5FED4E7074BE3620023E0
:102DCC002363202284F83D2084F83E302046FFF710
:102DDC0006FDD9E7912B00080000FFFF30B583B04A
:102DEC00044690F83D50EDB20268536823F4E0635A
:102DFC0053600023019303685A6901921A6842F0E8
:102E0C0001021A60019B0268136823F4806313604B
:102E1C0003685A6812F4006F38D0222D21D02A2D65
:102E2C001FD0426B1268526892B24285428D92B2A8
:102E3C001AB1026C42F0040202645A6822F4006275
:102E4C005A60606BFEF7FEFE01281FD0636B444A8C
:102E5C005A63606BFEF7AAFEC0B1606B436B984778
:102E6C0014E0A26B1268526892B26285628D92B2C3
:102E7C001AB1226C42F0040222645A6822F40062F5
:102E8C005A60A06BFEF7DEFE012842D1638D9BB227
:102E9C0033B323685A6912F0040F0AD01A69636AB3
:102EAC001A70636A01336362638D9BB2013B9BB200
:102EBC00638523685A6912F0400F0AD01A69636A55
:102ECC001A70636A01336362638D9BB2013B9BB2E0
:102EDC006385638D9BB21BB1236C43F004032364A5
:102EEC00236C13BB2A2D25D094F83D30DBB2282B54
:102EFC0029D0236B222B01D0222D19D1002323633F
:102F0C00202284F83D2084F83E302046FFF718FC40
:102F1C000EE0A36B124A5A63A06BFEF747FE002823
:102F2C00B4D0A06B436B9847B0E72046FFF79CFEEC
:102F3C0003B030BD00232363282384F83D302046A2
:102F4C00FFF7FEFBD0E7074BE3620023236320224D
:102F5C0084F83D2084F83E302046FFF740FCE7E73C
:102F6C00912B00080000FFFFF8B504460268556875
:102F7C00C66A90F83E30DBB290F83D10102B14D09E
:102F8C00C8B2402B11D0236C002B77D05369002191
:102F9C0013F0020F75D015F4007F72D0236C03B1BF
:102FAC0091692046FFF7F4FBF8BD9769516911F060
:102FBC00010005D1B6F52A0FF6D0B6F12A4FF3D0A1
:102FCC0010B115F4007F27D111F0080F02D015F4C1
:102FDC00007F28D111F0020F02D015F4007F26D10A
:102FEC0017F0040F2FD0526812F4006FDCD111F0DF
:102FFC00800F05D015F4806F02D011F0040F1AD099
:10300C0011F0040FD0D015F4007FCDD0102B16D0BA
:10301C002046FFF7E6FBC7E72046FFF73EF82046C1
:10302C00FEF768FEC0E72046FEF7B8FEBCE7204678
:10303C00FEF7CBFEB8E72046FFF72FFCB4E720469F
:10304C00FFF713FBB0E7536813F4006FACD111F02A
:10305C00400F05D015F4806F02D011F0040F09D089
:10306C0011F0040FA0D015F4007F9DD02046FFF77F
:10307C007DFC99E72046FFF70EFD95E791695369B2
:10308C0086E713F0100F02D015F4007F18D1212819
:10309C001AD0292818D013F0400F05D015F4806FE2
:1030AC0002D013F0040F28D013F0040F3FF47CAFC0
:1030BC0015F4007F3FF478AF2046FEF7A1FF73E7CD
:1030CC002046FFF78BFE6FE713F0800F05D015F449
:1030DC00806F02D013F0040F0BD013F0040F3FF4E9
:1030EC0063AF15F4007F3FF45FAF2046FEF778FF27
:1030FC005AE72046FFF7FEFA56E72046FFF721FB7A
:10310C0052E7002856D010B50446436A33B94368D9
:10311C00B3F5827F05D00023C36102E00023036175
:10312C0043610023A36294F85130002B3CD002235E
:10313C0084F851302268136823F0400313606368ED
:10314C0003F48273A26802F404421343E26802F4AB
:10315C0000621343226902F002021343626902F017
:10316C0001021343A26902F400721343E26902F0F4
:10317C0038021343226A02F080021343A26A02F45B
:10318C000052216813430B60638B226803F0040325
:10319C0053602268D36923F40063D3610020606517
:1031AC00012384F8513010BD84F850302046FDF7CF
:1031BC00A7FABCE7012070477047000030B585B016
:1031CC000446026851689368C3F3801013F0400FF3
:1031DC0005D113F0010F02D011F0400F5AD113F0AA
:1031EC00020F02D011F0800F58D1C3F3401513F029
:1031FC00200F01D1002854D011F0200F51D078B1FC
:10320C0094F85130DBB2032B4DD0636D43F00403C3
:10321C00636500230193D368019393680193019B29
:10322C0065B1636D43F001036365002303939368F9
:10323C000393136823F040031360039B636D002B0F
:10324C002FD02268536823F0E0035360012384F8E5
:10325C00513011F0030F2ED02268536823F0030372
:10326C005360E36C4BB1164A5A63E06CFEF79EFC5C
:10327C0018B1636D43F040036365A36C8BB1104AC6
:10328C005A63A06CFEF792FC58B1636D43F0400397
:10329C00636506E0236C2046984702E0636C204689
:1032AC00984705B030BD00230293D368029393680E
:1032BC000293029BF5E72046FFF77EFFF1E700BF84
:1032CC00D132000808B5406A0023C387C386FFF7D4
:1032DC0073FF08BD30B4036A056A25F00105056269
:1032EC00846924F0F00444EA021423F00A030B432B
:1032FC008461036230BC704730B4056A25F0100558
:10330C0005628469036A24F4704444EA023423F0AD
:10331C00A00343EA01138461036230BC70478368E5
:10332C0023F070030B4343F00703836070470000E6
:10333C0090F83D30DBB2012B27D1022380F83D30D1
:10334C000268D36843F00103D3600368114A9342C7
:10335C0010D0B3F1804F0DD0A2F59432934209D026
:10336C0002F58062934205D01A6842F001021A609D
:10337C00002070479A6802F00702062A07D01A68E4
:10338C0042F001021A6000207047012070470020B3
:10339C00704700BF002C0140704770477047704762
:1033AC0010B5044603681A6912F0020F11D0DA68DE
:1033BC0012F0020F0DD06FF002021A610123037795
:1033CC0003689B6913F0030F70D0FFF7E6FF00232F
:1033DC00237723681A6912F0040F12D0DA6812F0FE
:1033EC00040F0ED06FF004021A61022323772368B6
:1033FC009B6913F4407F5FD02046FFF7CEFF00237C
:10340C00237723681A6912F0080F12D0DA6812F0C9
:10341C00080F0ED06FF008021A610423237723687B
:10342C00DB6913F0030F4ED02046FFF7B6FF0023E5
:10343C00237723681A6912F0100F12D0DA6812F091
:10344C00100F0ED06FF010021A6108232377236837
:10345C00DB6913F4407F3DD02046FFF79EFF00232D
:10346C00237723681A6912F0010F03D0DA6812F07F
:10347C00010F36D123681A6912F0800F03D0DA6875
:10348C0012F0800F34D123681A6912F0400F03D068
:10349C00DA6812F0400F32D123681A6912F0200F4B
:1034AC0003D0DA6812F0200F30D110BDFFF774FF93
:1034BC002046FFF773FF8AE72046FFF76DFF204693
:1034CC00FFF76CFF9BE72046FFF766FF2046FFF7F0
:1034DC0065FFACE72046FFF75FFF2046FFF75EFF76
:1034EC00BDE76FF001021A612046FDF707F8C1E74E
:1034FC006FF080021A61204600F093F9C3E76FF079
:10350C0040021A612046FFF74AFFC5E76FF0200220
:10351C001A61204600F084F9C7E7000003681B4AD3
:10352C0090420AD0B0F1804F07D0A2F5943290426D
:10353C0003D002F58062904203D123F070034A68F5
:10354C001343124A90420AD0B0F1804F07D0A2F533
:10355C009432904203D002F58062904203D123F45E
:10356C004073CA68134323F080034A691343036012
:10357C008B68C3620B688362044B984202D00123B0
:10358C00436170470B690363F9E700BF002C0140EE
:10359C0040B310B5044690F83D30F3B1022384F8E3
:1035AC003D30214651F8040BFFF7B8FF012384F896
:1035BC00463084F83E3084F83F3084F8403084F84C
:1035CC00413084F8423084F8433084F8443084F835
:1035DC00453084F83D30002010BD80F83C30FDF7BC
:1035EC00D3F8DBE70120704710B4846824F47F44DF
:1035FC0042EA03220A432243826010BC704790F8CF
:10360C003C30012B66D010B50446012380F83C30C9
:10361C00022380F83D300268936823F47F4323F043
:10362C00770393600B68602B40D022D8402B47D097
:10363C000BD9502B0ED1CA6849680068FFF74AFEB7
:10364C0050212068FFF76BFE04E0202B0CD008D92A
:10365C00302B09D0012384F83D30002084F83C0045
:10366C0010BD0BB1102BF5D119462068FFF757FE92
:10367C00F0E7702B0ED0B3F5005FEBD1CB684A6846
:10368C0089680068FFF7B0FF2268936843F48043B1
:10369C009360DFE7CB684A6889680068FFF7A4FF8E
:1036AC002268936843F077039360D3E7CA6849684C
:1036BC000068FFF721FE60212068FFF730FEC9E7A4
:1036CC00CA6849680068FFF705FE40212068FFF7CB
:1036DC0026FEBFE70220704710B50468A26822F0EE
:1036EC0070024B68134323F007030A681343A3606B
:1036FC004B68602B2CD00CD8402B14D0502B06D1FF
:10370C000A6989680068FFF7E5FD002028E00020C1
:10371C0026E0702B23D10B698A68C9680068FFF713
:10372C0063FF00201CE00B68052B1AD003681C6A91
:10373C001A6A22F001021A620268936923F0F003FC
:10374C00096943EA0113936103681C62002007E0D6
:10375C000A6989680068FFF7CFFD002000E00020AF
:10376C0010BD0120FCE790F83C30012B22D010B5A5
:10377C000446012380F83C30022380F83D30FFF7EB
:10378C00ABFF80B92268D36823F04003D360226872
:10379C00D36823F48043D360012384F83D300023A5
:1037AC0084F83C3010BD012084F83D00002384F8DF
:1037BC003C30F7E70220704790F83C30012B2BD0BF
:1037CC0030B4012380F83C30022380F83D3003688C
:1037DC005C689D6824F070040A6822435A60036890
:1037EC000E4A93420AD0B3F1804F07D0A2F594321F
:1037FC00934203D002F58062934204D125F08005F8
:10380C004A6815439D60012380F83D30002380F801
:10381C003C30184630BC704702207047002C0140E9
:10382C007047704710B504460268136923F440537F
:10383C00C1680B43136183680269134342691A43DD
:10384C000168CB6823F4B05323F00C031343CB6013
:10385C000268536923F4407381690B435361026816
:10386C00124B9A421FD0FDF747FF00EB800303EB8E
:10387C00830362689200B3FBF2F20D48A0FB0231A5
:10388C004909642303FB11231B013233A0FB0323DF
:10389C005B0903F0F00202EB011203F00F03216845
:1038AC0013448B6010BDFDF737FFDEE70038014095
:1038BC001F85EB512DE9F84305460F4616469946F0
:1038CC00DDF820802C68246837EA04030CBF01243F
:1038DC000024B4421FD1B8F1FF3FF3D0B8F1000F70
:1038EC0005D0FDF7D9FBA0EB09004045EAD92A68C1
:1038FC00D36823F4D073D3602A68536923F001038F
:10390C005361202385F8393085F83A30002385F847
:10391C003830032000E00020BDE8F88358B310B520
:10392C00044690F839300BB3242384F839302268DC
:10393C00D36823F40053D3602046FFF773FF22684B
:10394C00136923F4904313612268536923F02A030B
:10395C0053612268D36843F40053D3600020E063C2
:10396C00202384F8393084F83A3010BD80F8383090
:10397C00FCF71EFFD8E7012070472DE9F04182B01B
:10398C001E4690F83930DBB2202B54D104460D463C
:10399C009046002953D0002A53D090F83830012B90
:1039AC0051D0012380F838300023C363212380F8E1
:1039BC003930FDF771FB0746A4F82480A4F8268063
:1039CC00A368B3F5805F05D04FF00008002384F89E
:1039DC00383012E0236913B14FF00008F6E7A8461F
:1039EC000025F3E738F8023B2268C3F30803536061
:1039FC00E28C92B2013A92B2E284E38C9BB273B144
:103A0C0000963B46002280212046FFF753FFE0B989
:103A1C00002DE7D015F8012B23685A60E8E70096D3
:103A2C003B46002240212046FFF744FF78B9202373
:103A3C0084F8393000E0022002B0BDE8F0810120AA
:103A4C00FAE70120F8E70220F6E70320F4E7032069
:103A5C00F2E77047002103E00B4B5B5843500431F5
:103A6C000A480B4B42189A42F6D30A4A02E000234A
:103A7C0042F8043B084B9A42F9D3FFF7EAFF00F0F7
:103A8C000FF8FCF7B3FC7047D44B00080000002083
:103A9C007000002070000020C8020020FEE700002B
:103AAC0070B500260C4D0D4C641BA410A64209D118
:103ABC0001F014F800260A4D0A4C641BA410A6420F
:103ACC0005D170BD55F8043B98470136EEE755F823
:103ADC00043B98470136F2E7CC4B0008CC4B00086E
:103AEC00CC4B0008D04B000803460244934200D153
:103AFC00704703F8011BF9E70FB40A4B13B51C68A8
:103B0C0024B1A36913B9204600F07AF805AB20461E
:103B1C00049AA168019300F095F902B0BDE8104039
:103B2C0004B070470C00002038B5084B05461C68E3
:103B3C0024B1A36913B9204600F062F82946204647
:103B4C00A268BDE8384000F043BC00BF0C00002068
:103B5C00002310B50446C0E90033C0E90433836088
:103B6C0081814366C2818361194608225C30FFF76C
:103B7C00BBFF054B24626362044BA362044BE362FC
:103B8C00044B236310BD00BF8D440008AF440008F4
:103B9C00E74400080B450008014900F0AFB800BF2E
:103BAC00E547000870B568254A1E55430E4605F1D9
:103BBC00740100F0C5F8044640B10021C0E90016BC
:103BCC000C30A06005F16802FFF78EFF204670BD37
:103BDC00014800F0B3B800BFC0020020014800F05B
:103BEC00AEB800BFC0020020014800F0A7B800BF6B
:103BFC00BB020020014800F0A2B800BFBB020020AD
:103C0C0010B50446FFF7F0FFA3691BB1BDE81040E7
:103C1C00FFF7F0BFC4E912332365134B134A1B683B
:103C2C00A262A34208BF0123204608BFA36100F093
:103C3C001FF86060204600F01BF8A060204600F0E2
:103C4C0017F800220421E0606068FFF781FF012271
:103C5C000921A068FFF77CFF02221221E068FFF720
:103C6C0077FF0123A361D1E7344B0008A53B000883
:103C7C00F8B50746FFF7ACFF1E4B1E68B36913B9C6
:103C8C003046FFF7BDFF4836D6E90134013B03D57A
:103C9C0033680BB33668F7E7B4F90C50D5B9164B4B
:103CAC0004F15800E360656600F047F8FFF796FFF3
:103CBC0008222946C4E90155C4E904552560A561CB
:103CCC0004F15C00FFF710FFC4E90D55C4E912556F
:103CDC002046F8BD6834D9E704213846FFF762FF67
:103CEC00044630600028D5D1FFF778FF0C233B60E9
:103CFC00EEE700BF344B00080100FFFF2DE9F8434D
:103D0C0006468846002700F14804D4E90195B9F12C
:103D1C00010905D52468002CF7D13846BDE8F88395
:103D2C00AB89012B07D9B5F90E30013303D02946E5
:103D3C003046C04707436835E9E77047704770471E
:103D4C00F8B5CD1C25F0030508350C2D38BF0C2516
:103D5C00002D064601DBA94203D90C233360002059
:103D6C00F8BD00F0F9FD21490A6814469CB9204FB2
:103D7C003B6823B92146304600F072FB3860294677
:103D8C00304600F06DFB431C23D10C2330463360CE
:103D9C0000F0E8FDE3E723685B1B17D40B2B03D97A
:103DAC0023601C44256004E06368A2420CBF0B60D6
:103DBC005360304600F0D6FD04F10B00231D20F0BB
:103DCC000700C21ACCD01B1AA350C9E7224664685C
:103DDC00CCE7C41C24F00304A042E3D0211A3046E3
:103DEC0000F03EFB0130DDD1CFE700BF8C0000209E
:103DFC0090000020936810B4013B002B936007DA0D
:103E0C009469A34201DB0A2902D110BC00F07CBBEF
:103E1C001368581C10601970084610BC7047F8B530
:103E2C0006460F461446D518AC4201D1002007E0D7
:103E3C003A46304614F8011BFFF7DCFF431CF3D164
:103E4C00F8BD00002DE9F04F0D4614469846064685
:103E5C009DB018B183690BB9FFF7D2FE894B9D4217
:103E6C001BD175686B6ED90705D4AB899A0502D442
:103E7C00A86DFFF763FFAB891B0701D52B69EBB965
:103E8C002946304600F0A4FBC0B16B6EDC070ED5A2
:103E9C004FF0FF301DB0BDE8F08F7B4B9D4201D140
:103EAC00B568DFE7794B9D4208BFF568DAE7AB8967
:103EBC009805EDD4A86DFFF742FFE9E700230993BD
:103ECC0020238DF8293030234FF00109CDF80C80D8
:103EDC00DFF8BC818DF82A3023469A4613F8012B63
:103EEC000AB1252AF9D1BAEB040B0BD05B4622465A
:103EFC0029463046FFF793FF013000F0AA80099A5B
:103F0C005A4409929AF80030002B00F0A28000234A
:103F1C004FF0FF32CDE905230AF1010A0493079310
:103F2C008DF853301A935446052214F8011B584847
:103F3C0000F004FD049AD8B9D10644BF20238DF8B3
:103F4C005330130744BF2B238DF853309AF80030AD
:103F5C002A2B15D0544600204FF00A0C079A214604
:103F6C0011F8013B303B092B4ED9B0B1079214E04C
:103F7C00A0EB080309FA03F31343A2460493D2E718
:103F8C00039B191D1B680391002BBBBF5B4242F0C6
:103F9C00020207930793B8BF049223782E2B0CD1FF
:103FAC0063782A2B35D1039B02341A1D1B680392AC
:103FBC00002BB8BF4FF0FF330593DFF8E4A00322CA
:103FCC005046217800F0BAFC40B14023A0EB0A0027
:103FDC0003FA00F0049B01340343049314F8011B0F
:103FEC0006222C488DF8281000F0A8FC00283FD0A1
:103FFC00294B1BBB039B073323F0070308330393A5
:10400C00099B3B44099367E70C4601200CFB0232E9
:10401C00A5E700234FF00A0C1946013405932046FE
:10402C0010F8012B303A092A03D9002BC5D0059181
:10403C00C3E7044601230CFB0121F0E703AB00931B
:10404C002A463046154B04A9AFF300800746781C6E
:10405C00D6D16B6ED90705D4AB899A0502D4A86D5D
:10406C00FFF76DFEAB895B063FF512AF099811E7C0
:10407C0003AB00932A463046084B04A900F082F8A3
:10408C00E4E700BF584B0008784B0008384B000899
:10409C00984B0008A24B0008000000002B3E0008C3
:1040AC009E4B00082DE9F047164699468A680B6925
:1040BC0007469342B8BF1346336091F843200C4631
:1040CC00DDF820800AB1013333602368990642BFC2
:1040DC00336802333360256815F0060506D104F108
:1040EC00190AE36832689B1AAB4228DC94F8432027
:1040FC00131E226818BF012392062DD44946384658
:10410C0004F14302C047013020D02368E56803F076
:10411C000603042B18BF002532684FF00006A36875
:10412C0008BFAD1A226908BF25EAE5759342C4BFE2
:10413C009B1AED181A34B5421AD1002008E001235D
:10414C00524649463846C047013003D14FF0FF3044
:10415C00BDE8F0870135C4E73020E11881F8430051
:10416C005A1C94F845102244023382F84310C5E7D8
:10417C000123224649463846C0470130E6D0013675
:10418C00D9E700002DE9FF470C46277E9146782F92
:10419C0080469A460C9904F1430207D8622F0AD83C
:1041AC00002F00F0D980582F00F0A48004F14206B3
:1041BC0084F842703AE0A7F16303152BF6D801A0FE
:1041CC0050F823F0294200083D420008B94100088C
:1041DC00B9410008B9410008B94100083D42000846
:1041EC00B9410008B9410008B9410008B9410008BB
:1041FC004B4300086D4200082D430008B9410008EC
:10420C00B94100086D430008B94100086D4200082F
:10421C00B9410008B9410008354300080B6804F1A6
:10422C0042061A1D1B680A6084F842300123A4E080
:10423C00256808682E0600F104030AD505680B6092
:10424C00002D03DA2D236D4284F843300A235E4897
:10425C0019E015F0400F05680B6018BF2DB2EFE7A1
:10426C000B682568181D0860280601D51D6802E03A
:10427C006906FBD51D886F2F0CBF08230A235248F3
:10428C00002184F843106668002EA8BF2168A66040
:10429C00A4BF21F0040121600DB9002E4DD01646AB
:1042AC00B5FBF3F103FB1157C75D06F8017D2F46F3
:1042BC00BB420D46F4D9082B0BD12368DF0708D578
:1042CC00236961689942DEBF302306F8013C06F190
:1042DC00FF36921B22614B4621464046CDF800A08A
:1042EC0003AAFFF7DFFE01304CD14FF0FF3004B0D2
:1042FC00BDE8F087344884F845700E68236856F89A
:10430C00045B1F060E6014D5D90744BF43F020038D
:10431C0023601DB9236823F0200323601023AFE72B
:10432C00236843F0200323607823284884F8453021
:10433C00E3E75E0648BFADB2E6E71646BBE70B689F
:10434C0026681D1D60690D6035061B6801D5186057
:10435C0002E07106FBD51880002316462361BAE7EC
:10436C000B681A1D0A601E6800213046626800F056
:10437C00E5FA08B1801B606063682361002384F850
:10438C004330A8E73246494640462369D0470130BE
:10439C00ABD023689B0713D4E068039B9842B8BF4B
:1043AC001846A4E70123324649464046D04701301F
:1043BC009BD00135E36803995B1AAB42F2DCEBE767
:1043CC00002504F11906F5E7A94B0008BA4B0008C3
:1043DC0070B50D461446064618B183690BB9FFF744
:1043EC000FFC1C4B9C4224D17468636ED80705D417
:1043FC00A389990502D4A06DFFF7A0FCA368013B2B
:10440C00002BA36005DAA26993421CDBEBB20A2BEA
:10441C0019D023685A1C22601D70EDB2636EDA0746
:10442C0005D4A3899B0502D4A06DFFF788FC284610
:10443C0070BD094B9C4201D1B468D6E7074B9C4236
:10444C0008BFF468D1E729462246304600F05CF8F4
:10445C000546E3E7584B0008784B0008384B00083A
:10446C0038B50023054D044608462B6000F028FBA8
:10447C00431C02D12B6803B1236038BDC402002059
:10448C0010B50C46B1F90E1000F0BEFA0028ABBF07
:10449C00636DA3891B1823F48053ACBF6365A381A0
:1044AC0010BD2DE9F0411F468B890546DB050C46F6
:1044BC00164605D502230022B1F90E1000F0C8F9FA
:1044CC00A389324623F48053A38128463B46B4F992
:1044DC000E10BDE8F04100F069B810B50C46B1F90A
:1044EC000E1000F0B5F9431CA38915BF606523F4C9
:1044FC00805343F48053A38118BFA38110BDB1F93D
:10450C000E1000F0D3B80000F8B50E461446054660
:10451C0018B183690BB9FFF773FB214B9C422BD16C
:10452C006C68A369A360A3891A072FD523696BB3A1
:10453C0023692068F6B2C01A63693746834204DCEB
:10454C002146284600F048F930BBA3680130013BF6
:10455C00A36023685A1C22601E706369834204D0D6
:10456C00A389DB0706D50A2E04D12146284600F084
:10457C0033F988B93846F8BD0A4B9C4201D1AC6876
:10458C00CFE7094B9C4208BFEC68CAE72146284696
:10459C0000F01EF80028CBD04FF0FF37EAE700BF41
:1045AC00584B0008784B0008384B000838B50446C7
:1045BC00084611460022054D2A601A46FBF792FF69
:1045CC00431C02D12B6803B1236038BDC402002008
:1045DC00324B70B51D6806460C4625B1AB6913B954
:1045EC002846FFF70DFB2E4B9C420FD16C68A3891C
:1045FC00B4F90C2019072CD4DD0611D4092333602F
:10460C0042F040034FF0FF30A3813EE0254B9C422B
:10461C0001D1AC68EBE7244B9C4208BFEC68E6E7A1
:10462C00580712D5616B41B104F14403994202D091
:10463C00304600F09DF900236363A38923F0240323
:10464C00A3810023636023692360A38943F00803DB
:10465C00A38123694BB9A38903F42073B3F5007FBD
:10466C0003D02146304600F029F9A089B4F90C207A
:10467C0010F001030AD00023A36063695B42A361BD
:10468C00236943B910F08000BAD170BD810758BFBF
:10469C006369A360F4E70020F7E700BF0C0000207B
:1046AC00584B0008784B0008384B000838B50023ED
:1046BC00054D044608462B6000F0DAF9431C02D184
:1046CC002B6803B1236038BDC40200208A892DE910
:1046DC00F041054610070C4658D44B68002B05DCFE
:1046EC000B6C002B02DC0020BDE8F081E66A002E8A
:1046FC00F9D0002312F480522F682B6032D0606DF9
:10470C00A3895A0705D56368C01A636B0BB1236C78
:10471C00C01A00230246E66A2846216AB047431CA9
:10472C00A38906D129681D292CD82A4ACA40D60744
:10473C0028D5002262602269D904226004D5421C6B
:10474C0001D12B6803B96065616B2F600029CAD059
:10475C0004F14403994202D0284600F009F90020E4
:10476C006063C1E7216A01232846B047411CC7D1C9
:10477C002B68002BC4D01D2B01D0162B01D12F6020
:10478C00B1E7A38943F04003A381ADE70F69002F84
:10479C00A9D0930718BF00230E6808BF4B69A6EB7E
:1047AC0007080F608B60B8F1000F9CDD43463A465A
:1047BC002846216AA66AB047002806DCA3894FF078
:1047CC00FF3043F04003A3818EE70744A8EB0008B9
:1047DC00E9E700BF0100402038B50B6905460C46DF
:1047EC0013B90025284638BD18B183690BB9FFF7FA
:1047FC0007FA144B9C421BD16C68B4F90C30002B9B
:10480C00EFD0626ED00704D4990502D4A06DFFF7E7
:10481C0095FA28462146FFF759FF636E0546DA07DD
:10482C00E0D4A3899B05DDD4A06DFFF788FAD9E706
:10483C00054B9C4201D1AC68DFE7044B9C4208BF9E
:10484C00EC68DAE7584B0008784B0008384B000846
:10485C0038B50446084611460022054D2A601A4612
:10486C0000F01EF9431C02D12B6803B1236038BD44
:10487C00C402002070B50E46B1F90E101446002982
:10488C001D4696B007DA00232B60B3891A0610D4A4
:10489C004FF480630EE06A4600F0C8F80028F2DBA3
:1048AC00019A02F47042A2F500535A425A412A600E
:1048BC00EEE740230020236016B070BD8B8973B5E2
:1048CC009D0706460C4607D504F147032360236178
:1048DC000123636102B070BD6A4601ABFFF7CAFFEA
:1048EC00009905463046FFF72BFA48B9B4F90C305D
:1048FC009A05EFD423F0030343F00203A381E3E70B
:10490C000D4BB362A389206043F08003A381009B0D
:10491C0020616361019B5BB13046B4F90E1000F06D
:10492C0097F828B1A38923F0030343F00103A38173
:10493C00A0890543A581CDE7A53B0008034610B52A
:10494C00C9B202449342184601D1002003E0047816
:10495C0001338C42F6D110BD0148FFF7EFB900BF0F
:10496C00BC0200200148FFF7EAB900BFBC020020DE
:10497C0038B50546002943D051F8043C0C1F002BD8
:10498C00B8BFE418FFF7E8FF1E4A1368104633B9A6
:10499C00636014602846BDE83840FFF7E3BFA342CC
:1049AC000AD921686218934201BF1A685B685218D1
:1049BC00226063600460EDE71A465B680BB1A342AA
:1049CC00FAD911685018A0420BD120680144501834
:1049DC0083421160DED118685B680144116053603A
:1049EC00D8E702D90C232B60D4E7206821188B421E
:1049FC0001BF19685B680918216063605460C9E7DE
:104A0C0038BD00BF8C00002038B50446084611465E
:104A1C000022054D2A601A4600F04AF8431C02D1C8
:104A2C002B6803B1236038BDC402002038B50023C5
:104A3C00064D0446084611462B6000F021F8431C35
:104A4C0002D12B6803B1236038BD00BFC402002023
:104A5C0038B50023054D044608462B6000F018F8C5
:104A6C00431C02D12B6803B1236038BDC402002063
:104A7C005822024B4FF0FF301A607047C4020020DE
:104A8C005822024B4FF0FF301A607047C4020020CE
:104A9C005822024B00201A60704700BFC40200204D
:104AAC005822024B4FF0FF301A607047C4020020AE
:104ABC005822024B4FF0FF301A607047C40200209E
:104ACC00044A05491368002B08BF0B4618441060B4
:104ADC001846704794000020C8020020F8B500BFAB
:104AEC00F8BC08BC9E467047F8B500BFF8BC08BCC3
:044AFC009E4670471B
:104B000025692C00107FFF00020304050607080931
:104B10000A0B0C0D0E0F101000000000000000002A
:104B2000000000000102030406070809000000005D
:104B3000010203041000002000000000000000003B
:104B40000000000000000000000000000000000065
:104B50000000000000000000000000000000000055
:104B60000000000000000000000000000000000045
:104B70000000000000000000000000000000000035
:104B80000000000000000000000000000000000025
:104B90000000000000000000232D302B2000686C76
:104BA0004C00656667454647003031323334353650
:104BB0003738394142434445460030313233343589
:0C4BC000363738396162636465660000B6
:044BCC0031010008AB
:044BD0000D010008CB
:104BD40001000000100000000024F4001000002078
:104BE40000000000584B0008784B0008384B0008C0
:104BF40000000000000000000000000000000000B1
:104C040000000000000000000000000000000000A0
:104C14000000000000000000000000000000000090
:104C24000000000000000000000000000000000080
:104C34000000000000000000000000000000000070
:0400000508003A6154
:00000001FF
