:020000040800F2
:1000000000500020852B000825080008270800085C
:10001000290800082B0800082D080008000000002F
:100020000000000000000000000000002F08000891
:1000300031080008000000003308000835080008F7
:10004000CD2B0008CD2B0008CD2B0008CD2B0008B0
:10005000CD2B0008CD2B0008CD2B0008CD2B0008A0
:10006000CD2B0008CD2B0008CD2B0008CD2B000890
:10007000CD2B0008CD2B0008CD2B0008CD2B000880
:10008000CD2B0008CD2B000839080008CD2B000827
:10009000CD2B0008CD2B0008CD2B0008CD2B000860
:1000A000CD2B000851080008CD2B0008CD2B0008EF
:1000B000CD2B0008CD2B0008CD2B0008CD2B000840
:1000C000CD2B0008CD2B0008CD2B0008CD2B000830
:1000D00061080008CD2B0008CD2B0008CD2B0008AF
:1000E000CD2B0008CD2B0008CD2B00080000000010
:1000F0000000000000000000000000000000000000
:0C01000000000000000000005FF808F1A3
:10010C0010B5054C237833B9044B13B10448AFF345
:10011C0000800123237010BD14000020000000009B
:10012C00182C000808B5034B1BB103490348AFF367
:10013C00008008BD0000000018000020182C0008EA
:10014C00F0B589B0002404940594069407941E4BD2
:10015C009A6942F020029A619A6902F02002019297
:10016C00019A9A6942F004029A619A6902F00402B7
:10017C000292029A9A6942F008029A619B6903F012
:10018C0008030393039B114F22468021384601F04C
:10019C0043FD0F4E01220221304601F03DFD80232C
:1001AC0004930125059506940224079404A9384666
:1001BC0001F022FC049405950695079404A9304699
:1001CC0001F01AFC09B0F0BD00100240000801401B
:1001DC00000C0140F0B585B0002501950295039502
:1001EC00134C144B23604FF48073A36001272773C7
:1001FC0025754FF46023E361656003262661204674
:10020C0000F076FE019502970723039301A920467F
:10021C0000F06EFD02230293039501A9204600F025
:10022C0067FD029601A9204600F062FD05B0F0BD05
:10023C00140500200024014030B585B00023019343
:10024C0002930393154C164A22604FF48072A260FD
:10025C00237323754FF46022E261636003252561EB
:10026C00204600F045FE042301930123029307234B
:10027C00039301A9204600F03BFD052301930223C3
:10028C00029301A9204600F033FD06230193029549
:10029C0001A9204600F02CFD05B030BD90040020D3
:1002AC000028014008B50948094B0360094B43601D
:1002BC0000238360C3604FF4804202614361836119
:1002CC00C361036201F0C0FE08BD00BFC004002082
:1002DC0000540040801A060008B50B480B4B036015
:1002EC004FF48273436000238360C36003614361F6
:1002FC004FF400728261C3610362436283620A231A
:10030C00C36202F031F808BD380400200038004008
:10031C0030B58DB00024089409940A940B9403947E
:10032C00049405940694079401940294114D4FF093
:10033C0080432B606C60AC604FF6FF73EB602C61FC
:10034C00AC61284602F056FA4FF48053089308A982
:10035C00284602F086FA0394049403A9284602F076
:10036C0034FB0194029401A9284602F057FB0DB00E
:10037C0030BD00BF8405002008B50848084B036059
:10038C004FF4E133436000238360C36003610C22AC
:10039C0042618361C36102F0BFFB08BD44050020CC
:1003AC000038014008B50848084B03604FF4E133AE
:1003BC00436000238360C36003610C22426183614C
:1003CC00C36102F0A9FB08BDCC050020004400402D
:1003DC0030B595B000240D940F94109405940694A8
:1003EC0007940894099401940294039404940122B0
:1003FC000A924FF480330B930C940E9202251195B4
:10040C0012934FF4E01313930AA800F0B9FE0F23D4
:10041C000593069507944FF4806308930994294635
:10042C0005A801F0EBF801954FF40043039301A8E4
:10043C0001F0DEF915B030BD10B500F053FEFFF73A
:10044C00C7FFFFF77DFEFFF7C5FEFFF7F5FEFFF7D1
:10045C0029FFFFF741FFFFF75BFFFFF78DFFFFF76A
:10046C00A1FF1B4800F0C8FD1A4C01224FF480710B
:10047C00204601F0D1FB01224FF40071204601F01F
:10048C00CBFB01224FF48061204601F0C5FB00F04C
:10049C005DF9002408E080210F4801F0C3FB00F057
:1004AC003FFE044600F07AF8002000F067F80021C7
:1004BC00084600F02BF9094A012306CA084800F047
:1004CC000DF900F02DFE031B642BEDD9E3E700BF03
:1004DC0014050020000C0140000801400000002021
:1004EC00302C000808B50268034B9A4200D008BDB6
:1004FC0000F00AFEFBE700BF002C014010B5094CD0
:10050C0000220221204601F087FB0A2000F00EFE9B
:10051C0001220221204601F07FFB0A2000F006FE9A
:10052C0010BD00BF000C014000B587B08DF817005E
:10053C004FF0FF330293012301930DF11702009248
:10054C0000227821024801F05DFE07B05DF804FB43
:10055C00C004002000B585B04FF0FF33029389B280
:10056C0001910090012340227821034801F04AFEBA
:10057C0005B05DF804FB00BFC0040020002303E0BD
:10058C00FF21054AD1540133B3F5806F03D2002803
:10059C00F6D10146F5E770473800002010B500246D
:1005AC0012E0A4F15000C0B2FFF7BEFF0220FFF72B
:1005BC00BBFF1020FFF7B8FF8021054800EBC410EB
:1005CC00FFF7C8FF0134E4B2072CEAD910BD00BF15
:1005DC003800002010F0800F15D13F2913D8104B94
:1005EC001B7913B1B2FA82F25209012A0CD0CB0852
:1005FC0000EBC31001F0070101238B40094A115C89
:10060C0021EA030111547047CB0800EBC31001F031
:10061C00070101238B40034A115C194311547047A5
:10062C0030000020380000202DE9F04F83B08146C7
:10063C0002A800E906001F46A9F12003DBB25E2BDD
:10064C0041D8254B1B889DF800603344802B3EDC41
:10065C00214B5B889DF801A0D3465344402B38DCDA
:10066C0000251FE01C4B1888598829442044B7FAF0
:10067C0087F25209C9B2C0B2FFF7ACFF0134A642EF
:10068C000FD908FA04F313F4004FEBD0124B18886F
:10069C005988294420443A46C9B2C0B2FFF79AFFA0
:1006AC00ECE70135AA4508D9A9F1200303FB0B534C
:1006BC00019A32F813800024E1E7074B1A8816449C
:1006CC001E80484600E0002003B0BDE8F08F0020FB
:1006DC00FAE70020F8E700BF3000002030B583B007
:1006EC00044602A800E906001D46207858B12B46A6
:1006FC0002AA12E90600FFF797FF02462078824211
:10070C0001D10134F1E703B030BD0000014B18807A
:10071C00598070473000002010B504468120FFF747
:10072C0003FF2046FFF700FF10BD000008B530B1F5
:10073C00054B01229A71AF20FFF7F6FE08BD024B64
:10074C0000229A71AE20F7E73000002008B5FFF7C1
:10075C00D5FE642000F0EAFC0020FFF7E7FF202024
:10076C00FFF7E2FE0020FFF7DFFEB020FFF7DCFE14
:10077C00C820FFF7D9FE0220FFF7D6FE1020FFF7A6
:10078C00D3FE4020FFF7D0FEA120FFF7CDFEA62020
:10079C00FFF7CAFEA820FFF7C7FE3F20FFF7C4FEF5
:1007AC00A420FFF7C1FED320FFF7BEFE0020FFF709
:1007BC00BBFED520FFF7B8FEF020FFF7B5FED92021
:1007CC00FFF7B2FEF120FFF7AFFECF20FFF7A4FF3B
:1007DC00DA20FFF7A9FE1220FFF7A6FEDB20FFF7B9
:1007EC00A3FE4020FFF7A0FE8D20FFF79DFE1420F6
:1007FC00FFF79AFE0120FFF799FF0020FFF7BEFEDE
:10080C00FFF7CCFE034B00221A805A8001225A714A
:10081C0008BD00BF300000207047FEE7FEE7FEE792
:10082C00FEE77047704770477047000008B50348F3
:10083C0000F0D8F9024800F0D5F908BD14050020E5
:10084C009004002008B5024801F0DCFE08BD00BF92
:10085C000C06002008B5024801F0E2FD08BD00BFFF
:10086C003804002082B00E4B9A6942F001029A6162
:10087C009A6902F001020092009ADA6942F0805201
:10088C00DA61DB6903F080530193019B054A5368DD
:10089C0023F0E06343F00073536002B0704700BF75
:1008AC00001002400000014000B589B00023049301
:1008BC000593069307930368284A934205D0284A68
:1008CC00934226D009B05DF804FB264B9A6942F49A
:1008DC0000729A619A6902F400720092009A9A6905
:1008EC0042F004029A619B6903F004030193019B9B
:1008FC00012304930323059304A91B4801F07CF8FE
:10090C0000221146122001F0F5F9122001F026FA0E
:10091C00D8E7144B9A6942F480629A619A6902F49E
:10092C0080620292029A9A6942F004029A619B696F
:10093C0003F004030393039B702304930323059395
:10094C0004A9094801F058F800221146122001F0C0
:10095C00D1F9122001F002FAB4E700BF00240140E3
:10096C0000280140001002400008014010B586B07C
:10097C00002302930393049305930268154B9A4248
:10098C0001D006B010BD144CA36943F00803A36159
:10099C00A36903F008030093009B4FF44073029388
:1009AC00122303930323059302A90C4801F024F8A6
:1009BC000B4A536843F0E06343F002035360E3696E
:1009CC0043F40013E361E36903F400130193019B07
:1009DC00D7E700BF0054004000100240000C01405B
:1009EC000000014030B587B00023029303930493B9
:1009FC00059302681B4B9A4201D007B030BD03F53A
:100A0C00EC33DA6942F48042DA61DA6902F480424A
:100A1C000092009A9A6942F008029A619B6903F06D
:100A2C0008030193019B4FF4204302930223039389
:100A3C00032305930C4D02A9284600F0DDFF4FF46B
:100A4C008043029300240394049402A9284600F0E6
:100A5C00D3FF22462146242001F04CF9242001F03A
:100A6C007DF9CAE700380040000C01400368B3F17F
:100A7C00804F00D0704782B003F50433DA6942F03E
:100A8C000102DA61DB6903F001030193019B02B0FF
:100A9C007047000010B588B00023049305930693AB
:100AAC00079303682C4A934204D02C4A93422BD0D0
:100ABC0008B010BD2A4B9A6942F480429A619A6937
:100ACC0002F480420092009A9A6942F004029A6100
:100ADC009B6903F004030193019B4FF4007304938F
:100AEC0002230593032307931E4C04A9204600F010
:100AFC0083FF4FF48063049300230593069304A9AA
:100B0C00204600F079FFD3E7154BDA6942F4003246
:100B1C00DA61DA6902F400320292029A9A6942F0BE
:100B2C0004029A619B6903F004030393039B04235F
:100B3C00049302230593032307930A4C04A920462C
:100B4C0000F05AFF0823049300230593069304A98D
:100B5C00204600F051FFABE7003801400044004054
:100B6C00001002400008014000B589B00146002287
:100B7C00192001F0BFF8192001F0F0F8144B9A6914
:100B8C0042F400629A619B6903F400630193019B38
:100B9C0002A903A800F00EFE00F0FCFD0D4BA3FB18
:100BAC0000239B0C013B0C480C4A026040F2E732DC
:100BBC00C260436000230361836001F01BFE18B127
:100BCC00012009B05DF804FB034801F0E3FCF8E7F1
:100BDC000010024083DE1B430C060020002C014059
:100BEC007047704710B5044603685A6812F0200F1E
:100BFC0018D01A6812F0020F14D0826A12F0100F7B
:100C0C0003D1826A42F4007282629A6802F4602212
:100C1C00B2F5602F38D02046FFF7E2FF23686FF063
:100C2C0012021A6023685A6812F0800F22D01A68D8
:100C3C0012F0040F1ED0A26A12F0100F03D1A26A98
:100C4C0042F40052A2629A6802F4E042B2F5E04F1C
:100C5C0031D05A6812F4806F05D19A6802F4602280
:100C6C00B2F5602F24D0204600F03AFA23686FF0DA
:100C7C000C021A6023685A6812F0400F03D01B68EC
:100C8C0013F0010F28D110BD227B002AC3D15A6862
:100C9C0022F020025A60A36A23F48073A362A36A31
:100CAC0013F4805FB7D1A36A43F00103A362B2E7E8
:100CBC00227B002AD7D15A6822F080025A60A36A9C
:100CCC0023F48053A362A36A13F4807FCBD1A36A6D
:100CDC0043F00103A362C6E7A36A43F48033A36223
:100CEC002046FFF77EFF23686FF001021A60CAE707
:100CFC0030B482B00022019290F82420012A00F036
:100D0C008B800346012280F824204A68062A29D8C1
:100D1C000568686B02EB8202053A1F24944020EAB6
:100D2C0004000C6804FA02F202436A630A68092A96
:100D3C0038D91D68E86802EB42021E3A0724944039
:100D4C0020EA04008C6804FA02F20243EA600A68A2
:100D5C00103A012A34D90020002283F8242002B052
:100D6C0030BC70470C2A0ED80568286B02EB820247
:100D7C00233A1F24944020EA04000C6804FA02F27F
:100D8C0002432A63D2E70568E86A02EB8202413A21
:100D9C001F24944020EA04000C6804FA02F2024377
:100DAC00EA62C3E71D68286902EB420207249440FB
:100DBC0020EA04008C6804FA02F202432A61C6E7B6
:100DCC001A681648824205D09A6A42F020029A624A
:100DDC000120C1E7906810F4000F1BD1906840F41B
:100DEC00000090600A68102A01D00020B4E70C4A79
:100DFC0012680C49A1FB0212920C02EB8202520007
:100E0C00019202E0019A013A0192019A002AF9D169
:100E1C000020A1E700209FE70220A0E7002401406A
:100E2C001000002083DE1B4330B583B000230193F8
:100E3C0003689A6812F0010F2DD104469A6842F0AB
:100E4C0001029A60154B1B68154AA2FB03239B0CED
:100E5C000193019B1BB1019B013B0193F9E700F04E
:100E6C005FF9054623689B6813F0010F11D100F060
:100E7C0057F9431B022BF5D9A36A43F01003A36265
:100E8C00E36A43F00103E362002384F82430012079
:100E9C0002E0002000E0002003B030BD1000002074
:100EAC0083DE1B4338B503689A6812F0010F01D139
:100EBC00002038BD04469A6822F001029A6000F0C6
:100ECC002FF9054623689B6813F0010F0ED000F034
:100EDC0027F9431B022BF5D9A36A43F01003A36235
:100EEC00E36A43F00103E3620120E2E70020E0E75C
:100EFC0000287BD070B50446836A002B4DD0204669
:100F0C00FFF7D0FFA36A13F0100369D1002867D153
:100F1C00A26A22F4885222F0020242F00202A26279
:100F2C006268E1690A43217B42EA4102A568B5F592
:100F3C00807F02D0012D36D01D46267D012E35D066
:100F4C002668716821F46941294371602568AE688F
:100F5C00274931401143A960A168B1F5807F01D0C8
:100F6C00012902D12369013B1B052568E96A21F49B
:100F7C0070010B43EB62236899681E4B0B409A423D
:100F8C0025D0A36A23F0120343F01003A362E36A93
:100F9C0043F00103E362012027E0C36280F82430B0
:100FAC00FFF782FCABE74FF48075C6E731B9A16956
:100FBC00013945EA413141F40065C1E7A16A41F0CC
:100FCC002001A162E16A41F00101E162B8E700236E
:100FDC00E362A36A23F0030343F00103A36204E07A
:100FEC00A36A43F01003A362012070BD0120704777
:100FFC00FDF7E1FFFE0E1FFF70B582B000230193D9
:10100C0090F82430012B67D00446012380F824305B
:10101C00FFF748FF054628B1002384F82430284602
:10102C0002B070BDA36A23F4885323F0020343F08B
:10103C000203A362294B1E68022000F063FCB6FB7E
:10104C00F0F676000196019B1BB1019B013B0193CD
:10105C00F9E72046FFF7E8FE2268936843F008039F
:10106C00936000F05DF8064623689A6812F0080F4A
:10107C000FD000F055F8801B0A28F5D9A36A23F08D
:10108C00120343F01003A362002384F824300125DB
:10109C00C5E79A6842F004029A6000F041F80646EF
:1010AC0023689B6813F0040F0FD000F039F8801BF5
:1010BC000A28F5D9A36A23F0120343F01003A362A4
:1010CC00002384F824300125A9E7A36A23F0030345
:1010DC0043F00103A3629FE70225A0E71000002064
:1010EC007047000008B5074A136843F010031360FB
:1010FC00032000F0EDFD0020FFF736FDFFF7B2FBFB
:10110C00002008BD00200240034A1168034B1B78E5
:10111C000B441360704700BF5406002008000020E9
:10112C00014B1868704700BF5406002038B50446C0
:10113C00FFF7F6FF0546B4F1FF3F02D0044B1B78D6
:10114C001C44FFF7EDFF401BA042FAD338BD00BF93
:10115C000800002082B0084B1B68084AA2FB03233E
:10116C005B0A00FB03F3019300BF019B5A1E019223
:10117C00002BF9D102B0704710000020D34D621043
:10118C00002800F0F18170B582B00446036813F0BA
:10119C00010F2CD0AA4B5B6803F00C03042B1DD061
:1011AC00A74B5B6803F00C03082B12D06368B3F5F4
:1011BC00803F41D0002B55D103F1804303F504331C
:1011CC001A6822F480321A601A6822F480221A609B
:1011DC0037E09B4B5B6813F4803FE7D0984B1B6860
:1011EC0013F4003F03D06368002B00F0BF81236829
:1011FC0013F0020F75D0924B5B6813F00C0F5FD09D
:10120C008F4B5B6803F00C03082B54D02369002B25
:10121C0000F089808B4B01221A60FFF781FF054695
:10122C00874B1B6813F0020F74D1FFF779FF401B3B
:10123C000228F5D903209EE1814A136843F48033D8
:10124C001360636843B3FFF76BFF05467C4B1B6869
:10125C0013F4003FCBD1FFF763FF401B6428F5D993
:10126C00032088E1B3F5A02F09D0754B1A6822F43E
:10127C0080321A601A6822F480221A60E1E703F1C6
:10128C008043A3F53C331A6842F480221A601A6832
:10129C0042F480321A60D4E7FFF742FF0546684BF0
:1012AC001B6813F4003FA2D0FFF73AFF401B6428E1
:1012BC00F5D903205FE1624B5B6813F4803FA5D145
:1012CC005F4B1B6813F0020F03D02369012B40F016
:1012DC004F815B4A136823F0F803616943EAC10349
:1012EC001360236813F0080F32D0A369002B45D08C
:1012FC00554B01221A60FFF713FF0546504B5B6AF2
:10130C0013F0020F21D1FFF70BFF401B0228F5D978
:10131C00032030E14A4A136823F0F803616943EA79
:10132C00C1031360DDE7474B00221A60FFF7F8FE9C
:10133C000546434B1B6813F0020FD2D0FFF7F0FEAB
:10134C00401B0228F5D9032015E10120FFF702FF0D
:10135C00236813F0040F00F09780394BDB6913F00E
:10136C00805F1DD1364BDA6942F08052DA61DB695D
:10137C0003F080530193019B012512E0324B0022B4
:10138C001A60FFF7CDFE05462D4B5B6A13F0020F7A
:10139C00DED0FFF7C5FE401B0228F5D90320EAE09A
:1013AC0000252A4B1B6813F4807F11D0E368012BB6
:1013BC0022D0002B38D103F1804303F504331A6A91
:1013CC0022F001021A621A6A22F004021A6218E070
:1013DC001E4A136843F480731360FFF7A1FE0646A0
:1013EC001A4B1B6813F4807FE0D1FFF799FE801B2A
:1013FC006428F5D90320BEE0114A136A43F00103B7
:10140C001362E36873B3FFF78BFE06460C4B1B6A43
:10141C0013F0020F37D1FFF783FE801B41F28833A4
:10142C009842F3D90320A6E0052B11D0044B1A6A7D
:10143C0022F001021A621A6A22F004021A62E0E730
:10144C000010024000004242800442420070004002
:10145C004D4B1A6A42F004021A621A6A42F00102F7
:10146C001A62CEE7FFF75CFE0646474B1B6A13F089
:10147C00020F08D0FFF754FE801B41F288339842CC
:10148C00F3D9032077E0E5B9E369002B72D03E4A2B
:10149C00526802F00C02082A56D0022B17D03B4B94
:1014AC0000221A60FFF73CFE0446374B1B6813F012
:1014BC00007F47D0FFF734FE001B0228F5D903202C
:1014CC0059E0314AD36923F08053D361DCE72F4BC9
:1014DC0000221A60FFF724FE05462B4B1B6813F005
:1014EC00007F06D0FFF71CFE401B0228F5D9032015
:1014FC0041E0236AB3F5803F1AD023494B6823F4AB
:10150C007413226A606A024313434B601F4B01221F
:10151C001A60FFF705FE04461B4B1B6813F0007F97
:10152C000ED1FFF7FDFD001B0228F5D9032022E0A8
:10153C00154A536823F40033A1680B435360DCE76E
:10154C00002018E0002016E0012B16D00E4B5B6833
:10155C0003F48031226A914211D103F47013626A50
:10156C0093420ED1002006E001207047012002E0DA
:10157C00012000E0002002B070BD0120FBE701203B
:10158C00F9E70120F7E700BF00100240600042427B
:10159C0086B0164B0FCB0DF1180C0CE90F0040F276
:1015AC000123ADF80430124B5B6803F00C02082ADF
:1015BC0002D0104806B07047C3F38342624412F85D
:1015CC00102C13F4803F0CD0094B5B68C3F34043E1
:1015DC00634413F8143C074800FB02F0B0FBF3F033
:1015EC00E8E7054800FB02F0E4E700BF9439000887
:1015FC000010024000127A0000093D00002800F0A3
:10160C00A08070B50D460446524B1B6803F00703CF
:10161C008B420BD24F4A136823F007030B43136022
:10162C00136803F007038B4240F08D80236813F09E
:10163C00020F17D013F0040F04D0474A536843F439
:10164C00E0635360236813F0080F04D0424A5368D8
:10165C0043F460535360404A536823F0F003A1688D
:10166C000B435360236813F0010F31D06368012BD7
:10167C0020D0022B25D0384A126812F0020F64D009
:10168C0035494A6822F0030213434B60FFF748FDCB
:10169C000646314B5B6803F00C036268B3EB820FB8
:1016AC0016D0FFF73DFD801B41F288339842F0D9EC
:1016BC00032045E0284A126812F4003FE0D10120D3
:1016CC003EE0254A126812F0007FD9D1012037E0A4
:1016DC00204B1B6803F00703AB420AD91D4A136861
:1016EC0023F007032B431360136803F00703AB428B
:1016FC002DD1236813F0040F06D0174A536823F436
:10170C00E063E1680B435360236813F0080F07D0C4
:10171C00114A536823F46053216943EAC1035360AF
:10172C00FFF736FF0C4B5B68C3F303130B4AD35C18
:10173C00D8400B4B18600B4B1868FFF715FA0020BC
:10174C0070BD012070470120FAE70120F8E7012065
:10175C00F6E700BF0020024000100240A839000844
:10176C00100000200C000020014B1868704700BFCF
:10177C001000002008B5FFF7F7FF044B5B68C3F3BC
:10178C000223034AD35CD84008BD00BF00100240BE
:10179C00B839000808B5FFF7E7FF044B5B68C3F3E3
:1017AC00C223034AD35CD84008BD00BF00100240DE
:1017BC00B83900080F2303600B4B5A6802F0030280
:1017CC0042605A6802F0F00282605A6802F4E062E9
:1017DC00C2605B68DB0803F4E0630361034B1B68C6
:1017EC0003F007030B60704700100240002002401A
:1017FC0070B582B00446036813F0010F34D03E4B31
:10180C00DB6913F0805F47D13B4BDA6942F08052C1
:10181C00DA61DB6903F080530193019B0125374B9F
:10182C001B6813F4807F39D0334B1B6A13F440735D
:10183C0011D0626802F440729A420CD02E4A136A9C
:10184C0023F440702E4901260E6000260E601062B3
:10185C0013F0010F36D1284A136A23F440736168E0
:10186C000B431362002D3ED1236813F0020F06D0F8
:10187C00214A536823F44043A1680B435360236807
:10188C0013F0100F34D01C4A536823F48003E16822
:10189C000B43536000202CE00025C0E7174A136867
:1018AC0043F480731360FFF73BFC0646134B1B6835
:1018BC0013F4807FB8D1FFF733FC801B6428F5D973
:1018CC00032016E0FFF72CFC06460B4B1B6A13F0AB
:1018DC00020FC0D1FFF724FC801B41F288339842E1
:1018EC00F3D9032005E0D36923F08053D361BBE720
:1018FC00002002B070BD00BF00100240007000401C
:10190C004004424210B586B00446364B0FCB0DF165
:10191C00180C0CE90F0040F20123ADF80430022C36
:10192C0052D0102C04D0012C2CD0002006B010BDAD
:10193C002D4B5A68186810F08070F7D0C2F38343AF
:10194C0006A90B4413F8100C12F4803F16D0264B4A
:10195C005B68C3F340430B4413F8142C234BB3FBC9
:10196C00F2F300FB03F0204B5B6813F4800FDDD126
:10197C0040001F4BA3FB00304008D7E71D4B03FB77
:10198C0000F0F0E7184B1B6A40F202321A40B2F535
:10199C00817F24D003F44073B3F5007F04D0B3F5FA
:1019AC00407F09D00020C1E70F4A526A12F0020FA3
:1019BC00F5D049F64040B9E70B4B186810F40030ED
:1019CC00B4D04FF22440B1E7FFF7E4FE064B5B685E
:1019DC00C3F3813301335B00B0FBF3F0A6E74FF4A4
:1019EC000040A3E7943900080010024000127A006E
:1019FC00ABAAAAAA00093D00F0B482B000252C467F
:101A0C00A3E07F4FBB4210D007D97E4FBB420CD016
:101A1C0007F58037BB4208D013E0A7F58017BB420F
:101A2C0003D007F57027BB4207D18B68002B58D029
:101A3C00012B51D04261082503E0A7F58017BB426A
:101A4C00F3D0FF2E4FD88446FF2E4FD8A200DCF8DF
:101A5C0000300F27974023EA070305FA02F21343DD
:101A6C00CCF800304B6813F0805F6DD0664B9A69F0
:101A7C0042F001029A619B6903F001030193019BFF
:101A8C00A208971C614B53F8273004F00307BF00E2
:101A9C004FF00F0C0CFA07FC23EA0C0C5C4B984231
:101AAC002AD003F58063984200F08A8003F58063A6
:101ABC00984200F0878003F5806398421AD0042383
:101ACC001BE0CD68BDE7CD680435BAE7CD680835B5
:101ADC00B7E7CD680C35B4E702610825B1E70025FE
:101AEC00AFE70425ADE700F1040CADE7A4F1080263
:101AFC009200ACE7032300E00023BB4043EA0C0355
:101B0C000232424F47F822304B6813F4803F5BD0CF
:101B1C00404A1368334313604B6813F4003F59D0A9
:101B2C003C4A5368334353604B6813F4801F57D0BF
:101B3C00384A9368334393604B6813F4001F55D0B5
:101B4C00344AD3681E43D66001340B6833FA04F26E
:101B5C0052D00122A24003EA020632EA0303F3D177
:101B6C004B68122B3FF64DAF122B3FF66AAF01A715
:101B7C0057F823F0371A0008CF1A0008D91A0008B2
:101B8C00EB1A00084F1A00084F1A00084F1A0008E9
:101B9C004F1A00084F1A00084F1A00084F1A000875
:101BAC004F1A00084F1A00084F1A00084F1A000865
:101BBC004F1A00084F1A0008D31A0008DF1A000841
:101BCC0001239AE7022398E7124A136823EA0603D3
:101BDC001360A1E70F4A536823EA06035360A3E797
:101BEC000C4A936823EA06039360A5E7094AD36875
:101BFC0023EA0606D660A7E702B0F0BC704700BF28
:101C0C0000002210000031100010024000000140C2
:101C1C0000080140000401400AB101617047090449
:101C2C0001617047C36801EA030221EA030141EA3A
:101C3C00024101617047000008B590F82130022B79
:101C4C0003D004238363012008BD0268136823F0CA
:101C5C000E0313600268136823F00103136003681A
:101C6C00194A934214D0143293421FD01432934227
:101C7C001ED0143293421ED0143293421ED0143212
:101C8C00934202D04FF0807203E04FF4801200E0D8
:101C9C0001220E4B5A60012380F82130002380F87A
:101CAC002030436B6BB198470020CDE71022F0E752
:101CBC004FF48072EDE74FF48052EAE74FF4803234
:101CCC00E7E70020C0E700BF080002400000024028
:101CDC00074AD36823F4E0631B041B0C000200F4D6
:101CEC00E060034343F0BF6343F40033D3607047B9
:101CFC0000ED00E030B4174BDB68C3F30223C3F1F3
:101D0C000704042C28BF04241D1D062D18D9033BE1
:101D1C004FF0FF3505FA04F421EA0401994005FA65
:101D2C0003F322EA0303194300280BDB0901C9B2B0
:101D3C0000F1604000F5614080F8001330BC704742
:101D4C000023E5E700F00F000901C9B2024B19545A
:101D5C00F4E700BF00ED00E014ED00E0002807DB25
:101D6C0000F01F02400901239340024A42F8203040
:101D7C00704700BF00E100E003685A6912F4806FFD
:101D8C0001D1002070476FF480625A610023036315
:101D9C00202280F83D2080F83E30026C42F0040294
:101DAC00026480F83C30012070472DE9F041074671
:101DBC000D4690461E4622E0FFF7B2F9069BC01A6C
:101DCC00B04200D8DEB900233B63202287F83D20C7
:101DDC0087F83E303A6C42F020023A6487F83C3087
:101DEC0001201AE03B689C6925EA0404A4B2B4FA09
:101DFC0084F46409A0450FD1B6F1FF3FDCD1C5F3E3
:101E0C000743012BEED13B685C6925EA0404A4B2BC
:101E1C00B4FA84F46409EDE70020BDE8F0812DE903
:101E2C00F04105460E46174698463DE01A6842F4C6
:101E3C0000721A602B686FF480625A6100232B6366
:101E4C00202285F83D2085F83E302A6C42F00402B1
:101E5C002A6485F83C30012034E0FFF761F9A0EBEF
:101E6C000800B84200D8FFB900232B63202285F864
:101E7C003D2085F83E302A6C42F020022A6485F819
:101E8C003C3001201EE02B689C6926EA0404A4B2B5
:101E9C00003C18BF0124A4B12B685A6912F4806F5E
:101EAC00C4D1B7F1FF3FD8D1C6F30743012BEAD118
:101EBC002B685C6926EA0404A4B2003C18BF012418
:101ECC00E9E70020BDE8F08170B504460D461646E2
:101EDC0023685B6913F0800F1CD12046FFF74CFF81
:101EEC00D0B9B5F1FF3FF3D0FFF71AF9801BA84228
:101EFC0001D8002DECD100232363202284F83D204F
:101F0C0084F83E30226C42F02002226484F83C308B
:101F1C00012000E0002070BD0120FCE72DE9F0431A
:101F2C0085B004460D4691461F46DDF830800D9E67
:101F3C000368196841F480711960009643460022C9
:101F4C004FF00111FFF731FF60B9236805F0FE0572
:101F5C001D613346424626492046FFF760FF68B1B3
:101F6C00012008E023681B6813F4807F02D04FF433
:101F7C0000732364032005B0BDE8F08300230393B2
:101F8C0023685A6903929B690393039B324641462B
:101F9C002046FFF799FF30B9012F0FD123685FFA64
:101FAC0089F61E61E7E7236C042B01D00120E2E7E0
:101FBC002268136843F400731360F7E723684FEA51
:101FCC0019221A61324641462046FFF77DFF20B99F
:101FDC0023685FFA89F61E61CDE7236C042B01D0D0
:101FEC000120C8E72268136843F400731360F7E715
:101FFC000200010070B504460D46164623685B6965
:10200C0013F0040F1CD12046FFF7B6FED0B9B5F182
:10201C00FF3FF3D0FFF784F8801BA84201D8002DB6
:10202C00ECD100232363202284F83D2084F83E3039
:10203C00226C42F02002226484F83C30012000E043
:10204C00002070BD0120FCE7002800F0CC80F8B522
:10205C00044690F83D30002B77D0242384F83D3093
:10206C002268136823F0010313602268136843F499
:10207C00004313602268136823F400431360FFF7D6
:10208C0079FB62685A4B9A4264D85A4B98428CBF7F
:10209C0000230123002B40F0A880574DA5FB0035F1
:1020AC00AF0C2668716821F03F0141EA95417160DF
:1020BC0021680B6A23F03F0365684D4A95424FD85F
:1020CC007A1C13430B622568E96921F44F4121F016
:1020DC00FF016368464A93424CD801385B00B0FB61
:1020EC00F3F0013040F6FC73184278D0C0F30B03C8
:1020FC000B43EB6121680B6823F0C003E269206A93
:10210C00024313430B6021688B6823F4034323F0D1
:10211C00FF032269E068024313438B602168CB689C
:10212C0023F0FF036269A06902431343CB6022686A
:10213C00136843F00103136000202064202384F80B
:10214C003D30206384F83E00F8BD80F83C30FEF74B
:10215C000DFC82E7294B98428CBF0023012399E7A1
:10216C004FF4967202FB07F2254DA5FB0252920921
:10217C000132A6E7A268BAB9461E03EB4307B6FBC9
:10218C00F7F60136C6F30B06B6FA86F6760946BBA9
:10219C00C2B9421E03EB4303B2FBF3F20132C2F3AA
:1021AC000B0242F40043A3E7461E03EB830707EB45
:1021BC008707B6FBF7F60136C6F30B06B6FA86F6BA
:1021CC007609E4E7421E03EB830303EB8303B2FBC4
:1021DC00F3F20132C2F30B0242F4404388E70423CA
:1021EC0086E7012384E7012070470120ACE700BF9C
:1021FC00A08601007F841E0083DE1B43FF083D0088
:10220C00D34D62102DE9F04383B004460F4690463F
:10221C0099460C9EFEF784FF054694F83D00C0B22B
:10222C00202803D0022003B0BDE8F08300951923C9
:10223C0001224B492046FFF7B8FD002840F0898069
:10224C0094F83C30012B00F08680012384F83C305C
:10225C0023681A6812F0010F03D11A6842F00102C8
:10226C001A602268136823F400631360212384F836
:10227C003D30402384F83E30002323640A9B636284
:10228C00BDF82C306385638D2385364BE362019555
:10229C0000964B46424639462046FFF73FFE002843
:1022AC005BD1238D002B35D02A4631462046FFF7D3
:1022BC000BFE20BB626A236812781A61616A4B1CA0
:1022CC006362228D013A92B22285638D9BB2013BEF
:1022DC009BB263852368586910F0040FE1D0002A83
:1022EC00DFD04A781A61636A01336362238D013B44
:1022FC002385638D9BB2013B9BB26385D1E7236C35
:10230C00042B01D001208EE72268136843F400737C
:10231C001360F7E72A4631462046FFF76BFE50B1B3
:10232C00236C042B01D001207DE72268136843F451
:10233C0000731360F7E72268136843F400731360AB
:10234C00202384F83D30002384F83E3084F83C3060
:10235C0069E7022067E7022065E7012063E700BF19
:10236C00020010000000FFFF002856D010B50446F4
:10237C00436A33B94368B3F5827F05D00023C36148
:10238C0002E00023036143610023A36294F85130FF
:10239C00002B3CD0022384F851302268136823F0C0
:1023AC0040031360636803F48273A26802F404426E
:1023BC001343E26802F400621343226902F0020242
:1023CC001343626902F001021343A26902F4007222
:1023DC001343E26902F038021343226A02F08002CE
:1023EC001343A26A02F40052216813430B60638BFF
:1023FC00226803F0040353602268D36923F400635A
:10240C00D36100206065012384F8513010BD84F83D
:10241C0050302046FEF7E6FABCE7012070477047C3
:10242C0030B585B00446026851689368C3F38010D8
:10243C0013F0400F05D113F0010F02D011F0400F33
:10244C005AD113F0020F02D011F0800F58D1C3F300
:10245C00401513F0200F01D1002854D011F0200F9B
:10246C0051D078B194F85130DBB2032B4DD0636D61
:10247C0043F00403636500230193D36801939368CD
:10248C000193019B65B1636D43F001036365002308
:10249C00039393680393136823F040031360039B27
:1024AC00636D002B2FD02268536823F0E003536038
:1024BC00012384F8513011F0030F2ED02268536899
:1024CC0023F003035360E36C4BB1164A5A63E06C80
:1024DC00FFF7B2FB18B1636D43F040036365A36C67
:1024EC008BB1104A5A63A06CFFF7A6FB58B1636D11
:1024FC0043F04003636506E0236C2046984702E0F6
:10250C00636C2046984705B030BD00230293D36816
:10251C00029393680293029BF5E72046FFF77FFF37
:10252C00F1E700BF3525000808B5406A0023C387D2
:10253C00C386FFF774FF08BD30B4036A056A25F043
:10254C0001050562846924F0F00444EA021423F0C6
:10255C000A030B438461036230BC704730B4056AD4
:10256C0025F0100505628469036A24F4704444EA7A
:10257C00023423F0A00343EA01138461036230BCEC
:10258C007047836823F070030B4343F007038360A9
:10259C007047000090F83D30DBB2012B27D10223AD
:1025AC0080F83D300268D36843F00103D3600368C0
:1025BC00114A934210D0B3F1804F0DD0A2F5943252
:1025CC00934209D002F58062934205D01A6842F01A
:1025DC0001021A60002070479A6802F00702062A6E
:1025EC0007D01A6842F001021A60002070470120DF
:1025FC0070470020704700BF002C014070477047A7
:10260C007047704710B5044603681A6912F0020F40
:10261C0011D0DA6812F0020F0DD06FF002021A61BD
:10262C000123037703689B6913F0030F70D0FFF746
:10263C00E6FF0023237723681A6912F0040F12D0E7
:10264C00DA6812F0040F0ED06FF004021A61022344
:10265C00237723689B6913F4407F5FD02046FFF7F4
:10266C00CEFF0023237723681A6912F0080F12D0CB
:10267C00DA6812F0080F0ED06FF008021A6104230A
:10268C0023772368DB6913F0030F4ED02046FFF746
:10269C00B6FF0023237723681A6912F0100F12D0AB
:1026AC00DA6812F0100F0ED06FF010021A610823C6
:1026BC0023772368DB6913F4407F3DD02046FFF776
:1026CC009EFF0023237723681A6912F0010F03D0B1
:1026DC00DA6812F0010F36D123681A6912F0800FF4
:1026EC0003D0DA6812F0800F34D123681A6912F023
:1026FC00400F03D0DA6812F0400F32D123681A6908
:10270C0012F0200F03D0DA6812F0200F30D110BD78
:10271C00FFF774FF2046FFF773FF8AE72046FFF7A9
:10272C006DFF2046FFF76CFF9BE72046FFF766FF27
:10273C002046FFF765FFACE72046FFF75FFF20461A
:10274C00FFF75EFFBDE76FF001021A612046FDF74F
:10275C00C9FEC1E76FF080021A61204600F093F9C0
:10276C00C3E76FF040021A612046FFF74AFFC5E746
:10277C006FF020021A61204600F084F9C7E70000D0
:10278C0003681B4A90420AD0B0F1804F07D0A2F5E3
:10279C009432904203D002F58062904203D123F030
:1027AC0070034A681343124A90420AD0B0F1804F2A
:1027BC0007D0A2F59432904203D002F58062904289
:1027CC0003D123F44073CA68134323F080034A698E
:1027DC00134303608B68C3620B688362044B98429B
:1027EC0002D00123436170470B690363F9E700BF13
:1027FC00002C014040B310B5044690F83D30F3B1C5
:10280C00022384F83D30214651F8040BFFF7B8FF42
:10281C00012384F8463084F83E3084F83F3084F845
:10282C00403084F8413084F8423084F8433084F8E6
:10283C00443084F8453084F83D30002010BD80F8D9
:10284C003C30FEF713F9DBE70120704710B48468C5
:10285C0024F47F4442EA03220A432243826010BCE0
:10286C00704790F83C30012B66D010B5044601231C
:10287C0080F83C30022380F83D300268936823F4E2
:10288C007F4323F0770393600B68602B40D022D8F2
:10289C00402B47D00BD9502B0ED1CA684968006821
:1028AC00FFF74AFE50212068FFF76BFE04E0202B57
:1028BC000CD008D9302B09D0012384F83D300020EE
:1028CC0084F83C0010BD0BB1102BF5D119462068D3
:1028DC00FFF757FEF0E7702B0ED0B3F5005FEBD18E
:1028EC00CB684A6889680068FFF7B0FF2268936874
:1028FC0043F480439360DFE7CB684A6889680068DB
:10290C00FFF7A4FF2268936843F077039360D3E743
:10291C00CA6849680068FFF721FE60212068FFF74C
:10292C0030FEC9E7CA6849680068FFF705FE402118
:10293C002068FFF726FEBFE70220704710B5046839
:10294C00A26822F070024B68134323F007030A6855
:10295C001343A3604B68602B2CD00CD8402B14D0A5
:10296C00502B06D10A6989680068FFF7E5FD002045
:10297C0028E0002026E0702B23D10B698A68C968F7
:10298C000068FFF763FF00201CE00B68052B1AD0D2
:10299C0003681C6A1A6A22F001021A6202689369BF
:1029AC0023F0F003096943EA0113936103681C6285
:1029BC00002007E00A6989680068FFF7CFFD002056
:1029CC0000E0002010BD0120FCE790F83C30012B0A
:1029DC0022D010B50446012380F83C30022380F845
:1029EC003D30FFF7ABFF80B92268D36823F040037A
:1029FC00D3602268D36823F48043D360012384F826
:102A0C003D30002384F83C3010BD012084F83D009B
:102A1C00002384F83C30F7E70220704790F83C30F4
:102A2C00012B2BD030B4012380F83C30022380F8EA
:102A3C003D3003685C689D6824F070040A6822438A
:102A4C005A6003680E4A93420AD0B3F1804F07D004
:102A5C00A2F59432934203D002F58062934204D1E2
:102A6C0025F080054A6815439D60012380F83D30B0
:102A7C00002380F83C30184630BC70470220704769
:102A8C00002C01407047704710B50446026813696A
:102A9C0023F44053C1680B431361836802691343E9
:102AAC0042691A430168CB6823F4B05323F00C033A
:102ABC001343CB600268536923F4407381690B4361
:102ACC0053610268124B9A421FD0FEF753FE00EB83
:102ADC00800303EB830362689200B3FBF2F20D48B0
:102AEC00A0FB02314909642303FB11231B01323380
:102AFC00A0FB03235B0903F0F00202EB011203F0CD
:102B0C000F03216813448B6010BDFEF743FEDEE714
:102B1C00003801401F85EB5158B310B5044690F8AE
:102B2C0039300BB3242384F839302268D36823F46A
:102B3C000053D3602046FFF7A7FF2268136923F4E4
:102B4C00904313612268536923F02A03536122686E
:102B5C00D36843F40053D3600020E063202384F84F
:102B6C00393084F83A3010BD80F83830FDF792FFD8
:102B7C00D8E7012070477047002103E00B4B5B58EE
:102B8C00435004310A480B4B42189A42F6D30A4A76
:102B9C0002E0002342F8043B084B9A42F9D3FFF7BA
:102BAC00EAFF00F00FF8FDF747FC7047C839000842
:102BBC000000002014000020140000205806002003
:102BCC00FEE7000070B500260C4D0D4C641BA410E4
:102BDC00A64209D100F01AF800260A4D0A4C641BD3
:102BEC00A410A64205D170BD55F8043B9847013698
:102BFC00EEE755F8043B98470136F2E7C039000878
:102C0C00C0390008C0390008C4390008F8B500BF45
:102C1C00F8BC08BC9E467047F8B500BFF8BC08BCB1
:042C2C009E46704709
:102C300048454C4C4F000000000000000000000020
:102C40000000000000000000000000000000000084
:102C50000000000000000000000000000000000C68
:102C6000000C000C000C000C000C000C000C000C04
:102C7000000C000C0000000C000C00000000000024
:102C80000000001B001B001B001B001B00000000BD
:102C90000000000000000000000000000000000034
:102CA0000000000000008019801980198019C07F81
:102CB000C07F80190033C07FC07F003300330033F2
:102CC00000330000000000000000001E003F80757F
:102CD00080650074003C001E0007800580658065EB
:102CE0008075003F001E000400040000000000701A
:102CF00000D840D8C0D880D900730006000C801BD3
:102D0000C036C066C046C006800300000000000058
:102D10000000001E003F003300330033001E000C93
:102D2000C03CC066806380618063C03E801C000040
:102D3000000000000000000C000C000C000C000C57
:102D40000000000000000000000000000000000083
:102D500000000000000000008000000100030006E9
:102D600000060004000C000C000C000C000C000C11
:102D7000000400060006000300018000002000108F
:102D80000018000C000C00040006000600060006F7
:102D9000000600060004000C000C001800100020C3
:102DA0000000000C002D003F001E0033000000005A
:102DB0000000000000000000000000000000000013
:102DC00000000000000000000000000C000C000CDF
:102DD000000CC0FFC0FF000C000C000C000C000039
:102DE00000000000000000000000000000000000E3
:102DF00000000000000000000000000000000000D3
:102E00000000000C000C000400040008000000009A
:102E10000000000000000000000000000000001E94
:102E2000001E000000000000000000000000000084
:102E30000000000000000000000000000000000092
:102E400000000000000000000000000C000C00006A
:102E5000000000000000000300030003000600065D
:102E600000060006000C000C000C000C00180018F6
:102E700000180000000000000000001E003F0033AA
:102E8000806180618061806D806D80618061806122
:102E90000033003F001E000000000000000000069C
:102EA000000E001E00360026000600060006000682
:102EB00000060006000600060006000000000000F4
:102EC0000000001E003F807380618061800100036C
:102ED0000006000C001800300060807F807F00003A
:102EE000000000000000001C003E006300630003BF
:102EF000000E000E00038001800180618073003F9E
:102F0000001E00000000000000000006000E000E81
:102F1000001E001E0016003600360066807F807F8F
:102F20000006000600060000000000000000007F10
:102F3000007F006000600060006E007F80638001A1
:102F4000800180618073003F001E000000000000CF
:102F50000000001E003F803380610060006E007F33
:102F600080738061806180618033003F001E0000BB
:102F7000000000000000807F807F800100030003CC
:102F800000060006000C000C000C000800180018D9
:102F900000180000000000000000001E003F8063D9
:102FA000806180610021001E003F8061806180613E
:102FB0008061003F001E0000000000000000001EB5
:102FC000003F00738061806180618073803F801D5D
:102FD000800180610073003F001E000000000000BF
:102FE00000000000000000000000000C000C0000C9
:102FF00000000000000000000000000C000C0000B9
:1030000000000000000000000000000000000000C0
:10301000000C000C00000000000000000000000C8C
:10302000000C000400040008000000000000000084
:1030300080008003000E003800600038000E80031E
:103040008000000000000000000000000000000000
:10305000000000000000807F807F00000000807F73
:10306000807F000000000000000000000000000061
:10307000000000000000000000400070001C00077D
:1030800080010007001C00700040000000000000EC
:10309000000000000000001F803FC071C060C00041
:1030A000C00180030007000E000C000C0000000CA3
:1030B000000C0000000000000000001E003F8031F6
:1030C00080718063806F806D806D806F806700602D
:1030D0000032003E001C0000000000000000000E56
:1030E000000E001B001B001B001B80318031803F45
:1030F000803F8031C060C060C06000000000000000
:103100000000007C007E0063006300630063007EBB
:10311000007E0063806180618063007F007E00002C
:10312000000000000000001E003F80318061006050
:103130000060006000600060006080618031003FDE
:10314000001E0000000000000000007C007F006303
:1031500080638061806180618061806180610063E3
:103160000063007E007C0000000000000000807F03
:10317000807F0060006000600060007F007F006072
:10318000006000600060807F807F00000000000021
:103190000000807F807F0060006000600060007F32
:1031A000007F006000600060006000600060000060
:1031B000000000000000001E003F803180610060C0
:1031C0000060006080638063806180618031803F47
:1031D000001E00000000000000008061806180612E
:1031E000806180618061807F807F8061806180619B
:1031F0008061806180610000000000000000003FED
:10320000003F000C000C000C000C000C000C000C2B
:10321000000C000C000C003F003F0000000000000C
:103220000000800180018001800180018001800117
:1032300080018001806180618073003F001E00007A
:10324000000000000000C06080610063006600664E
:10325000006C0078007C006600660063806180611D
:10326000C06000000000000000000060006000601E
:10327000006000600060006000600060006000604E
:103280000060807F807F0000000000000000C071AF
:10329000C071C07BC07AC06AC06AC06EC064C060C2
:1032A000C060C060C060C060C0600000000000007E
:1032B000000080718071807980798079806D806D67
:1032C000806D8065806780678067806380630000B1
:1032D000000000000000001E003F0033806180619C
:1032E0008061806180618061806180610033003F26
:1032F000001E0000000000000000007E007F8063D0
:103300008061806180618063007F007E006000607A
:103310000060006000600000000000000000001E6F
:10332000003F0033806180618061806180618061E5
:10333000806580670033803F401E00000000000071
:103340000000007E007F8063806180618063007F79
:10335000007E00660063006380618061C0600000E1
:10336000000000000000000E001F8031803100309E
:103370000038001E00078003806180618031003FBB
:10338000001E0000000000000000C0FFC0FF000C95
:10339000000C000C000C000C000C000C000C000CCD
:1033A000000C000C000C0000000000000000806118
:1033B0008061806180618061806180618061806105
:1033C000806180618073003F001E000000000000EB
:1033D0000000C060C060C060803180318031001B5F
:1033E000001B001B001B000E000E000E000400005E
:1033F000000000000000C0C0C0C0C0C0C0C0C0C04D
:10340000C0CC804C804C805E805280528073806142
:1034100080610000000000000000C0C0806080618A
:103420000033003B001E000C000C001E001F003B80
:1034300080718061C0C00000000000000000C0C0BA
:103440008061806100330033001E001E000C000C00
:10345000000C000C000C000C000C00000000000030
:103460000000803F803F8001000300030006000C45
:10347000000C0018001800300060807F807F000082
:1034800000000000000F000F000C000C000C000CEE
:10349000000C000C000C000C000C000C000C000CCC
:1034A000000C000C000F000F00000018001800189E
:1034B000000C000C000C000C0006000600060006C4
:1034C000000300030003000000000000001E001EB7
:1034D00000060006000600060006000600060006BC
:1034E000000600060006000600060006001E001E7C
:1034F0000000000C000C001E00120033003380613D
:1035000080610000000000000000000000000000DA
:1035100000000000000000000000000000000000AB
:10352000000000000000000000000000000000009B
:1035300000000000E0FF0000000000380018000C50
:10354000000000000000000000000000000000007B
:10355000000000000000000000000000000000006B
:10356000000000000000001F803F80618001801F7C
:10357000803F80618063807FC038000000000000D1
:1035800000000060006000600060006E007F8073DB
:1035900080618061806180618073007F006E0000C7
:1035A0000000000000000000000000000000001EFD
:1035B000003F807380610060006080618073003F25
:1035C000001E00000000000000008001800180015A
:1035D0008001801D803F8073806180618061806197
:1035E0008073803F801D000000000000000000008C
:1035F000000000000000001E003F00738061807F1B
:10360000807F00608071003F001E0000000000000D
:103610000000C007C00F000C000C807F807F000CF2
:10362000000C000C000C000C000C000C000C000046
:10363000000000000000000000000000801D803F2E
:10364000807380618061806180618073803F801DB4
:1036500080018063007F003E000000600060006029
:103660000060006F807F8071806180618061806117
:1036700080618061806100000000000000000006A1
:10368000000600000000003E003E000600060006A6
:10369000000600060006000600060000000000000C
:1036A0000006000600000000003E003E0006000686
:1036B000000600060006000600060006000600469A
:1036C000007E003C000000600060006000608061DF
:1036D00000630066006C007C00760063006380611C
:1036E000C0600000000000000000003E003E000638
:1036F000000600060006000600060006000600069A
:1037000000060006000600000000000000000000A7
:1037100000000000000080DDC0FFC0CEC0CCC0CCE7
:10372000C0CCC0CCC0CCC0CCC0CC000000000000DD
:1037300000000000000000000000006F807F80712A
:103740008061806180618061806180618061000052
:103750000000000000000000000000000000001E4B
:10376000003F807380618061806180618073003F71
:10377000001E00000000000000000000000000002B
:10378000006E007F807380618061806180618073E2
:10379000007F006E006000600060006000000000BC
:1037A00000000000801D803F807380618061806127
:1037B00080618073803F801D8001800180018001D5
:1037C000000000000000000000000067803F00399A
:1037D0000030003000300030003000300030000099
:1037E0000000000000000000000000000000001EBB
:1037F000803F80610060007F803F80018061007FAA
:10380000001E00000000000000000000000800187A
:103810000018007F007F001800180018001800181A
:103820000018801F800F0000000000000000000052
:103830000000000000008061806180618061806123
:10384000806180618063807F803D00000000000017
:1038500000000000000000000000C06080318031E6
:103860008031001B001B001B000E000E0006000034
:10387000000000000000000000000000000080DDEB
:1038800080DD80DD0055005500550077007700226F
:103890000022000000000000000000000000000006
:1038A0000000806100330033001E000C000C001E7D
:1038B00000330033806100000000000000000000C1
:1038C0000000000080618061803100330033001B04
:1038D000001B001B000E000E000E001C007C007080
:1038E00000000000000000000000C07FC07F8001D9
:1038F00000030006000C00180030C07FC07F0000ED
:103900000000000080038007000600060006000695
:103910000006000E001C001C000E0006000600063B
:103920000006000680078003000600060006000669
:103930000006000600060006000600060006000657
:103940000006000600060006000600060038003CDF
:10395000000C000C000C000C000C000E000700070F
:10396000000E000C000C000C000C000C003C003899
:10397000000000000000000000000000000080388F
:10398000807F0047000000000000000000000000F1
:103990000000000002030405060708090A0B0C0DCD
:1039A0000E0F1010000000000000000000000000DA
:1039B00001020304060708090000000001020304D5
:0439C00031010008C9
:0439C4000D010008E9
:1039C8000B120000382C0008010000001000000055
:0439D8000024F400D3
:0400000508002B853F
:00000001FF
