:020000040800F2
:10000000005000202D2100082D0600082F060008B2
:10001000310600083306000835060008000000001D
:10002000000000000000000000000000370600088B
:1000300039060008000000003B0600083D060008E5
:100040007521000875210008752100087521000838
:100050007521000875210008752100087521000828
:100060007521000875210008752100087521000818
:100070007521000875210008752100087521000808
:100080007521000875210008410600087521000847
:1000900075210008752100087521000875210008E8
:1000A000752100085906000875210008752100080F
:1000B00075210008752100087521000875210008C8
:1000C00075210008752100087521000875210008B8
:1000D00075210008752100087521000875210008A8
:1000E0007521000875210008752100080000000036
:1000F0000000000000000000000000000000000000
:0C01000000000000000000005FF808F1A3
:10010C0010B5054C237833B9044B13B10448AFF345
:10011C0000800123237010BD70000020000000003F
:10012C00502A000808B5034B1BB103490348AFF331
:10013C00008008BD0000000074000020502A000858
:10014C002DE9F04188B0002404940594069407949A
:10015C002B4B9A6942F020029A619A6902F02002B4
:10016C000192019A9A6942F004029A619A6902F02A
:10017C0004020292029A9A6942F008029A619B69FF
:10018C0003F008030393039B1E4F2246802138463D
:10019C0001F0E6FB1C4E012240F27F71304601F06B
:1001AC00DFFB802304930125059506944FF002088C
:1001BC00CDF81C8004A9384601F0C2FA40F207734E
:1001CC00049305950695CDF81C8004A9304601F0E2
:1001DC00B7FA4FF4C05304930594069504A9384616
:1001EC0001F0AEFA78230493059506950323079343
:1001FC0004A9304601F0A4FA08B0BDE8F08100BFB4
:10020C000010024000080140000C0140F0B585B020
:10021C000025019502950395134C144B23604FF464
:10022C008073A3600127277325754FF46023E36166
:10023C00656003262661204600F012FD01950297A9
:10024C000723039301A9204600F00AFC0223029322
:10025C00039501A9204600F003FC029601A9204653
:10026C0000F0FEFB05B0F0BD200100200024014091
:10027C0030B585B00023019302930393154C164AB5
:10028C0022604FF48072A260237323754FF46022B6
:10029C00E261636003252561204600F0E1FC042344
:1002AC000193012302930723039301A9204600F035
:1002BC00D7FB052301930223029301A9204600F0EA
:1002CC00CFFB06230193029501A9204600F0C8FB41
:1002DC0005B030BDF00000200028014030B58DB0D5
:1002EC000024089409940A940B94039404940594A0
:1002FC000694079401940294114D4FF080432B60A7
:10030C006C60AC604FF6FF73EB602C61AC612846FF
:10031C0001F0E8FC4FF48053089308A9284601F03B
:10032C0018FD0394049403A9284601F0C6FD01941A
:10033C00029401A9284601F0E9FD0DB030BD00BFC3
:10034C009001002008B50848084B03604FF4E133D6
:10035C00436000238360C36003610C2242618361AC
:10036C00C36101F051FE08BD50010020003801406E
:10037C0008B50848084B03604FF4E1334360002391
:10038C008360C36003610C2242618361C36101F02D
:10039C003BFE08BDD80100200044004008B50B48C6
:1003AC000B4B03604FF48273436000238360C36084
:1003BC00036143614FF480228261C3610362436233
:1003CC0083620A23C36201F04FFE08BD980000202F
:1003DC000038004038B5054680240AE00022082188
:1003EC000B4801F0BDFA01221021094801F0B8FABE
:1003FC00641064B100221021054801F0B1FA2542C5
:10040C00ECD001220821024801F0AAFAEBE738BD32
:10041C00000C014010B582B00B0B43EA00138DF8B1
:10042C0004300B098DF8053009018DF806100024F5
:10043C0006E002AB234413F8040CFFF7CBFF0134A6
:10044C00022CF6DD02B010BD08B501460320FFF703
:10045C00E1FF08BD08B5890041EA001141EA4201FB
:10046C001943890201F47C410420FFF7D3FF08BD36
:10047C0030B595B000240D940F9410940594069407
:10048C00079408940994019402940394049401220F
:10049C000A924FF480330B930C940E920225119513
:1004AC0012934FF4E01313930AA800F00DFD0F23E1
:1004BC000593069507944FF4806308930994294695
:1004CC0005A800F03FFF01954FF40043039301A8EA
:1004DC0001F032F815B030BD30B59BB000F0BAFC6D
:1004EC00FFF7C6FFFFF72CFEFFF790FEFFF7C0FEED
:1004FC00FFF7F4FEFFF726FFFFF73AFFFFF74EFF7B
:10050C003A4800F031FC3A4C00224FF480712046FE
:10051C0001F026FA0023012211461846FFF79AFF34
:10052C0001224FF48071204601F01AFA00224FF498
:10053C000071204601F014FA0023012211461846DE
:10054C00FFF788FF01224FF40071204601F008FAF2
:10055C0000224FF48061204601F002FA00230122B0
:10056C0011461846FFF776FF01224FF480612046B2
:10057C0001F0F6F900250EE080211E4801F0F6F995
:10058C0000F086FC05461C4AA2FB003292091B496E
:10059C0001A801F01DFE164C00224FF400712046FC
:1005AC0001F0DEF900F074FC154BA3FB00300009E0
:1005BC00144BA3FB00235B0903EB8303A0EBC303E6
:1005CC00013303EB831003EB400303EB830398B27B
:1005DC00FFF73AFF01224FF40071204601F0C0F9F9
:1005EC0000F056FC401B6428D5D9C5E7200100203B
:1005FC00000C014000080140D34D6210682A00082D
:10060C0089888888CDCCCCCC08B50268034B9A423B
:10061C0000D008BD00F030FCFBE700BF002C01400F
:10062C007047FEE7FEE7FEE7FEE77047704770474E
:10063C007047000008B5034800F08CF9024800F040
:10064C0089F908BD20010020F000002008B50248FF
:10065C0001F050FA08BD00BF1802002082B00E4B0A
:10066C009A6942F001029A619A6902F001020092C1
:10067C00009ADA6942F08052DA61DB6903F0805348
:10068C000193019B054A536823F0E06343F0007328
:10069C00536002B0704700BF0010024000000140E0
:1006AC0000B589B000230493059306930793036860
:1006BC00284A934205D0284A934226D009B05DF8C7
:1006CC0004FB264B9A6942F400729A619A6902F40F
:1006DC0000720092009A9A6942F004029A619B6936
:1006EC0003F004030193019B01230493032305935B
:1006FC0004A91B4801F024F800221146122001F035
:10070C0051F9122001F082F9D8E7144B9A6942F49E
:10071C0080629A619A6902F480620292029A9A69E2
:10072C0042F004029A619B6903F004030393039B58
:10073C00702304930323059304A9094801F000F8DE
:10074C0000221146122001F02DF9122001F05EF961
:10075C00B4E700BF00240140002801400010024013
:10076C000008014010B586B0002302930393049354
:10077C0005930268174B9A4201D006B010BD03F5E1
:10078C00EC33DA6942F48042DA61DA6902F48042CD
:10079C000092009A9A6942F008029A619B6903F0F0
:1007AC0008030193019B4FF43043029302230393FC
:1007BC0003230593084C02A9204600F0C1FF4FF417
:1007CC008043029300230393049302A9204600F074
:1007DC00B7FFD2E700380040000C01400368B3F1CA
:1007EC00804F00D0704782B003F50433DA6942F0D1
:1007FC000102DA61DB6903F001030193019B02B092
:10080C007047000010B588B000230493059306933D
:10081C00079303682C4A934204D02C4A93422BD062
:10082C0008B010BD2A4B9A6942F480429A619A69C9
:10083C0002F480420092009A9A6942F004029A6192
:10084C009B6903F004030193019B4FF40073049321
:10085C0002230593032307931E4C04A9204600F0A2
:10086C006FFF4FF48063049300230593069304A950
:10087C00204600F065FFD3E7154BDA6942F40032ED
:10088C00DA61DA6902F400320292029A9A6942F051
:10089C0004029A619B6903F004030393039B0423F2
:1008AC00049302230593032307930A4C04A92046BF
:1008BC0000F046FF0823049300230593069304A934
:1008CC00204600F03DFFABE70038014000440040FB
:1008DC00001002400008014000B589B0014600221A
:1008EC00192001F05FF8192001F090F8144B9A6967
:1008FC0042F400629A619B6903F400630193019BCB
:10090C0002A903A800F0FAFD00F0E8FD0D4BA3FBD3
:10091C0000239B0C013B0C480C4A026040F2E7326E
:10092C00C260436000230361836001F0DBF918B1FE
:10093C00012009B05DF804FB034801F0A3F8F8E7C7
:10094C000010024083DE1B4318020020002C0140E3
:10095C007047704710B5044603685A6812F0200FB0
:10096C0018D01A6812F0020F14D0826A12F0100F0D
:10097C0003D1826A42F4007282629A6802F46022A5
:10098C00B2F5602F38D02046FFF7E2FF23686FF0F6
:10099C0012021A6023685A6812F0800F22D01A686B
:1009AC0012F0040F1ED0A26A12F0100F03D1A26A2B
:1009BC0042F40052A2629A6802F4E042B2F5E04FAF
:1009CC0031D05A6812F4806F05D19A6802F4602213
:1009DC00B2F5602F24D0204600F03AFA23686FF06D
:1009EC000C021A6023685A6812F0400F03D01B687F
:1009FC0013F0010F28D110BD227B002AC3D15A68F5
:100A0C0022F020025A60A36A23F48073A362A36AC3
:100A1C0013F4805FB7D1A36A43F00103A362B2E77A
:100A2C00227B002AD7D15A6822F080025A60A36A2E
:100A3C0023F48053A362A36A13F4807FCBD1A36AFF
:100A4C0043F00103A362C6E7A36A43F48033A362B5
:100A5C002046FFF77EFF23686FF001021A60CAE799
:100A6C0030B482B00022019290F82420012A00F0C8
:100A7C008B800346012280F824204A68062A29D854
:100A8C000568686B02EB8202053A1F24944020EA49
:100A9C0004000C6804FA02F202436A630A68092A29
:100AAC0038D91D68E86802EB42021E3A07249440CC
:100ABC0020EA04008C6804FA02F20243EA600A6835
:100ACC00103A012A34D90020002283F8242002B0E5
:100ADC0030BC70470C2A0ED80568286B02EB8202DA
:100AEC00233A1F24944020EA04000C6804FA02F212
:100AFC0002432A63D2E70568E86A02EB8202413AB4
:100B0C001F24944020EA04000C6804FA02F2024309
:100B1C00EA62C3E71D68286902EB4202072494408D
:100B2C0020EA04008C6804FA02F202432A61C6E748
:100B3C001A681648824205D09A6A42F020029A62DC
:100B4C000120C1E7906810F4000F1BD1906840F4AD
:100B5C00000090600A68102A01D00020B4E70C4A0B
:100B6C0012680C49A1FB0212920C02EB8202520099
:100B7C00019202E0019A013A0192019A002AF9D1FC
:100B8C000020A1E700209FE70220A0E700240140FD
:100B9C000800002083DE1B4330B583B00023019393
:100BAC0003689A6812F0010F2DD104469A6842F03E
:100BBC0001029A60154B1B68154AA2FB03239B0C80
:100BCC000193019B1BB1019B013B0193F9E700F0E1
:100BDC005FF9054623689B6813F0010F11D100F0F3
:100BEC0057F9431B022BF5D9A36A43F01003A362F8
:100BFC00E36A43F00103E362002384F8243001200C
:100C0C0002E0002000E0002003B030BD080000200E
:100C1C0083DE1B4338B503689A6812F0010F01D1CB
:100C2C00002038BD04469A6822F001029A6000F058
:100C3C002FF9054623689B6813F0010F0ED000F0C6
:100C4C0027F9431B022BF5D9A36A43F01003A362C7
:100C5C00E36A43F00103E3620120E2E70020E0E7EE
:100C6C0000287BD070B50446836A002B4DD02046FB
:100C7C00FFF7D0FFA36A13F0100369D1002867D1E6
:100C8C00A26A22F4885222F0020242F00202A2620C
:100C9C006268E1690A43217B42EA4102A568B5F525
:100CAC00807F02D0012D36D01D46267D012E35D0F9
:100CBC002668716821F46941294371602568AE6822
:100CCC00274931401143A960A168B1F5807F01D05B
:100CDC00012902D12369013B1B052568E96A21F42E
:100CEC0070010B43EB62236899681E4B0B409A42D0
:100CFC0025D0A36A23F0120343F01003A362E36A26
:100D0C0043F00103E362012027E0C36280F8243042
:100D1C00FFF7C6FCABE74FF48075C6E731B9A169A4
:100D2C00013945EA413141F40065C1E7A16A41F05E
:100D3C002001A162E16A41F00101E162B8E7002300
:100D4C00E362A36A23F0030343F00103A36204E00C
:100D5C00A36A43F01003A362012070BD0120704709
:100D6C00FDF7E1FFFE0E1FFF70B582B0002301936B
:100D7C0090F82430012B67D00446012380F82430EE
:100D8C00FFF748FF054628B1002384F82430284695
:100D9C0002B070BDA36A23F4885323F0020343F01E
:100DAC000203A362294B1E68022000F04FFCB6FB25
:100DBC00F0F676000196019B1BB1019B013B019360
:100DCC00F9E72046FFF7E8FE2268936843F0080332
:100DDC00936000F05DF8064623689A6812F0080FDD
:100DEC000FD000F055F8801B0A28F5D9A36A23F020
:100DFC00120343F01003A362002384F8243001256E
:100E0C00C5E79A6842F004029A6000F041F8064681
:100E1C0023689B6813F0040F0FD000F039F8801B87
:100E2C000A28F5D9A36A23F0120343F01003A36236
:100E3C00002384F824300125A9E7A36A23F00303D7
:100E4C0043F00103A3629FE70225A0E708000020FE
:100E5C007047000008B5074A136843F0100313608D
:100E6C00032000F08DFD0020FFF736FDFFF7F6FBA9
:100E7C00002008BD00200240034A1168034B1B7878
:100E8C000B441360704700BF60020020000000207C
:100E9C00014B1868704700BF6002002082B0084BFD
:100EAC001B68084AA2FB03235B0A00FB03F30193B4
:100EBC0000BF019B5A1E0192002BF9D102B0704762
:100ECC0008000020D34D6210002800F0F18170B5AD
:100EDC0082B00446036813F0010F2CD0AA4B5B6858
:100EEC0003F00C03042B1DD0A74B5B6803F00C0321
:100EFC00082B12D06368B3F5803F41D0002B55D13D
:100F0C0003F1804303F504331A6822F480321A602B
:100F1C001A6822F480221A6037E09B4B5B6813F44A
:100F2C00803FE7D0984B1B6813F4003F03D06368F5
:100F3C00002B00F0BF81236813F0020F75D0924B89
:100F4C005B6813F00C0F5FD08F4B5B6803F00C03E6
:100F5C00082B54D02369002B00F089808B4B012285
:100F6C001A60FFF795FF0546874B1B6813F0020FBD
:100F7C0074D1FFF78DFF401B0228F5D903209EE1A9
:100F8C00814A136843F480331360636843B3FFF7FB
:100F9C007FFF05467C4B1B6813F4003FCBD1FFF75A
:100FAC0077FF401B6428F5D9032088E1B3F5A02F07
:100FBC0009D0754B1A6822F480321A601A6822F430
:100FCC0080221A60E1E703F18043A3F53C331A68F1
:100FDC0042F480221A601A6842F480321A60D4E714
:100FEC00FFF756FF0546684B1B6813F4003FA2D071
:100FFC00FFF74EFF401B6428F5D903205FE1624BDD
:10100C005B6813F4803FA5D15F4B1B6813F0020F94
:10101C0003D02369012B40F04F815B4A136823F006
:10102C00F803616943EAC1031360236813F0080FE6
:10103C0032D0A369002B45D0554B01221A60FFF723
:10104C0027FF0546504B5B6A13F0020F21D1FFF7C7
:10105C001FFF401B0228F5D9032030E14A4A1368D0
:10106C0023F0F803616943EAC1031360DDE7474BE2
:10107C0000221A60FFF70CFF0546434B1B6813F068
:10108C00020FD2D0FFF704FF401B0228F5D9032032
:10109C0015E10120FFF702FF236813F0040F00F0A5
:1010AC009780394BDB6913F0805F1DD1364BDA69C1
:1010BC0042F08052DA61DB6903F080530193019BAB
:1010CC00012512E0324B00221A60FFF7E1FE0546C3
:1010DC002D4B5B6A13F0020FDED0FFF7D9FE401BDD
:1010EC000228F5D90320EAE000252A4B1B6813F4EB
:1010FC00807F11D0E368012B22D0002B38D103F173
:10110C00804303F504331A6A22F001021A621A6A48
:10111C0022F004021A6218E01E4A136843F480732A
:10112C001360FFF7B5FE06461A4B1B6813F4807F5D
:10113C00E0D1FFF7ADFE801B6428F5D90320BEE09B
:10114C00114A136A43F001031362E36873B3FFF7A8
:10115C009FFE06460C4B1B6A13F0020F37D1FFF7AC
:10116C0097FE801B41F288339842F3D90320A6E006
:10117C00052B11D0044B1A6A22F001021A621A6A6A
:10118C0022F004021A62E0E7001002400000424222
:10119C0080044242007000404D4B1A6A42F0040237
:1011AC001A621A6A42F001021A62CEE7FFF770FE69
:1011BC000646474B1B6A13F0020F08D0FFF768FE78
:1011CC00801B41F288339842F3D9032077E0E5B9CC
:1011DC00E369002B72D03E4A526802F00C02082AD6
:1011EC0056D0022B17D03B4B00221A60FFF750FE53
:1011FC000446374B1B6813F0007F47D0FFF748FEBF
:10120C00001B0228F5D9032059E0314AD36923F099
:10121C008053D361DCE72F4B00221A60FFF738FEB6
:10122C0005462B4B1B6813F0007F06D0FFF730FEF2
:10123C00401B0228F5D9032041E0236AB3F5803F17
:10124C001AD023494B6823F47413226A606A024350
:10125C0013434B601F4B01221A60FFF719FE044623
:10126C001B4B1B6813F0007F0ED1FFF711FE001B08
:10127C000228F5D9032022E0154A536823F40033E1
:10128C00A1680B435360DCE7002018E0002016E057
:10129C00012B16D00E4B5B6803F48031226A91420D
:1012AC0011D103F47013626A93420ED1002006E050
:1012BC0001207047012002E0012000E0002002B074
:1012CC0070BD0120FBE70120F9E70120F7E700BF23
:1012DC00001002406000424286B0164B0FCB0DF15D
:1012EC00180C0CE90F0040F20123ADF80430124B3E
:1012FC005B6803F00C02082A02D0104806B0704755
:10130C00C3F38342624412F8102C13F4803F0CD0C8
:10131C00094B5B68C3F34043634413F8143C074820
:10132C0000FB02F0B0FBF3F0E8E7054800FB02F02D
:10133C00E4E700BF6C2A00080010024000127A009B
:10134C0000093D00002800F0A08070B50D46044651
:10135C00524B1B6803F007038B420BD24F4A1368A6
:10136C0023F007030B431360136803F007038B424E
:10137C0040F08D80236813F0020F17D013F0040F88
:10138C0004D0474A536843F4E0635360236813F076
:10139C00080F04D0424A536843F460535360404AE8
:1013AC00536823F0F003A1680B435360236813F0D8
:1013BC00010F31D06368012B20D0022B25D0384A85
:1013CC00126812F0020F64D035494A6822F0030209
:1013DC0013434B60FFF75CFD0646314B5B6803F033
:1013EC000C036268B3EB820F16D0FFF751FD801B24
:1013FC0041F288339842F0D9032045E0284A12681C
:10140C0012F4003FE0D101203EE0254A126812F0B0
:10141C00007FD9D1012037E0204B1B6803F0070374
:10142C00AB420AD91D4A136823F007032B43136000
:10143C00136803F00703AB422DD1236813F0040F9C
:10144C0006D0174A536823F4E063E1680B435360FA
:10145C00236813F0080F07D0114A536823F4605324
:10146C00216943EAC1035360FFF736FF0C4B5B68FD
:10147C00C3F303130B4AD35CD8400B4B18600B4BD4
:10148C001868FFF729FA002070BD01207047012071
:10149C00FAE70120F8E70120F6E700BF0020024040
:1014AC0000100240802A00080800002004000020E0
:1014BC00014B1868704700BF0800002008B5FFF703
:1014CC00F7FF044B5B68C3F30223034AD35CD84099
:1014DC0008BD00BF00100240902A000808B5FFF7B5
:1014EC00E7FF044B5B68C3F3C223034AD35CD840C9
:1014FC0008BD00BF00100240902A00080F230360B3
:10150C000B4B5A6802F0030242605A6802F0F00278
:10151C0082605A6802F4E062C2605B68DB0803F424
:10152C00E0630361034B1B6803F007030B60704718
:10153C00001002400020024070B582B004460368DF
:10154C0013F0010F34D03E4BDB6913F0805F47D1B1
:10155C003B4BDA6942F08052DA61DB6903F080536D
:10156C000193019B0125374B1B6813F4807F39D005
:10157C00334B1B6A13F4407311D0626802F440724F
:10158C009A420CD02E4A136A23F440702E4901263D
:10159C000E6000260E60106213F0010F36D1284A3F
:1015AC00136A23F4407361680B431362002D3ED120
:1015BC00236813F0020F06D0214A536823F44043EA
:1015CC00A1680B435360236813F0100F34D01C4AEE
:1015DC00536823F48003E1680B43536000202CE034
:1015EC000025C0E7174A136843F480731360FFF7B4
:1015FC004FFC0646134B1B6813F4807FB8D1FFF7E2
:10160C0047FC801B6428F5D9032016E0FFF740FC4B
:10161C0006460B4B1B6A13F0020FC0D1FFF738FCC8
:10162C00801B41F288339842F3D9032005E0D3693B
:10163C0023F08053D361BBE7002002B070BD00BF24
:10164C0000100240007000404004424210B586B0C9
:10165C000446364B0FCB0DF1180C0CE90F0040F281
:10166C000123ADF80430022C52D0102C04D0012CE4
:10167C002CD0002006B010BD2D4B5A68186810F005
:10168C008070F7D0C2F3834306A90B4413F8100CF7
:10169C0012F4803F16D0264B5B68C3F340430B44D7
:1016AC0013F8142C234BB3FBF2F300FB03F0204B89
:1016BC005B6813F4800FDDD140001F4BA3FB00309F
:1016CC004008D7E71D4B03FB00F0F0E7184B1B6AF3
:1016DC0040F202321A40B2F5817F24D003F44073F9
:1016EC00B3F5007F04D0B3F5407F09D00020C1E7EB
:1016FC000F4A526A12F0020FF5D049F64040B9E792
:10170C000B4B186810F40030B4D04FF22440B1E702
:10171C00FFF7E4FE064B5B68C3F3813301335B00D8
:10172C00B0FBF3F0A6E74FF40040A3E76C2A0008E7
:10173C000010024000127A00ABAAAAAA00093D00D0
:10174C00F0B482B000252C46A3E07F4FBB4210D0F2
:10175C0007D97E4FBB420CD007F58037BB4208D06F
:10176C0013E0A7F58017BB4203D007F57027BB42E7
:10177C0007D18B68002B58D0012B51D04261082522
:10178C0003E0A7F58017BB42F3D0FF2E4FD8844659
:10179C00FF2E4FD8A200DCF800300F27974023EA29
:1017AC00070305FA02F21343CCF800304B6813F030
:1017BC00805F6DD0664B9A6942F001029A619B6919
:1017CC0003F001030193019BA208971C614B53F892
:1017DC00273004F00307BF004FF00F0C0CFA07FC86
:1017EC0023EA0C0C5C4B98422AD003F58063984298
:1017FC0000F08A8003F58063984200F0878003F53F
:10180C00806398421AD004231BE0CD68BDE7CD68F5
:10181C000435BAE7CD680835B7E7CD680C35B4E7C1
:10182C0002610825B1E70025AFE70425ADE700F11B
:10183C00040CADE7A4F108029200ACE7032300E02E
:10184C000023BB4043EA0C030232424F47F82230DC
:10185C004B6813F4803F5BD0404A136833431360EA
:10186C004B6813F4003F59D03C4A536833435360E0
:10187C004B6813F4801F57D0384A936833439360F6
:10188C004B6813F4001F55D0344AD3681E43D660FE
:10189C0001340B6833FA04F252D00122A24003EA5D
:1018AC00020632EA0303F3D14B68122B3FF64DAF1D
:1018BC00122B3FF66AAF01A757F823F07F170008E9
:1018CC00171800082118000833180008971700088B
:1018DC009717000897170008971700089717000824
:1018EC009717000897170008971700089717000814
:1018FC009717000897170008971700089717000804
:10190C001B1800082718000801239AE7022398E700
:10191C00124A136823EA06031360A1E70F4A5368BF
:10192C0023EA06035360A3E70C4A936823EA0603F1
:10193C009360A5E7094AD36823EA0606D660A7E7B1
:10194C0002B0F0BC704700BF000022100000311044
:10195C00001002400000014000080140000401405A
:10196C000AB101617047090401617047C36801EA5B
:10197C00030221EA030141EA0241016170470000C0
:10198C00074AD36823F4E0631B041B0C000200F429
:10199C00E060034343F0BF6343F40033D36070470C
:1019AC0000ED00E030B4174BDB68C3F30223C3F146
:1019BC000704042C28BF04241D1D062D18D9033B35
:1019CC004FF0FF3505FA04F421EA0401994005FAB9
:1019DC0003F322EA0303194300280BDB0901C9B204
:1019EC0000F1604000F5614080F8001330BC704796
:1019FC000023E5E700F00F000901C9B2024B1954AE
:101A0C00F4E700BF00ED00E014ED00E0002807DB78
:101A1C0000F01F02400901239340024A42F8203093
:101A2C00704700BF00E100E030B4036A056A25F09E
:101A3C0001050562846924F0F00444EA021423F0E1
:101A4C000A030B438461036230BC704730B4056AEF
:101A5C0025F0100505628469036A24F4704444EA95
:101A6C00023423F0A00343EA01138461036230BC07
:101A7C007047836823F070030B4343F007038360C4
:101A8C007047000090F83D30DBB2012B27D10223C8
:101A9C0080F83D300268D36843F00103D3600368DB
:101AAC00114A934210D0B3F1804F0DD0A2F594326D
:101ABC00934209D002F58062934205D01A6842F035
:101ACC0001021A60002070479A6802F00702062A89
:101ADC0007D01A6842F001021A60002070470120FA
:101AEC0070470020704700BF002C014070477047C2
:101AFC007047704710B5044603681A6912F0020F5C
:101B0C0011D0DA6812F0020F0DD06FF002021A61D8
:101B1C000123037703689B6913F0030F70D0FFF761
:101B2C00E6FF0023237723681A6912F0040F12D002
:101B3C00DA6812F0040F0ED06FF004021A6102235F
:101B4C00237723689B6913F4407F5FD02046FFF70F
:101B5C00CEFF0023237723681A6912F0080F12D0E6
:101B6C00DA6812F0080F0ED06FF008021A61042325
:101B7C0023772368DB6913F0030F4ED02046FFF761
:101B8C00B6FF0023237723681A6912F0100F12D0C6
:101B9C00DA6812F0100F0ED06FF010021A610823E1
:101BAC0023772368DB6913F4407F3DD02046FFF791
:101BBC009EFF0023237723681A6912F0010F03D0CC
:101BCC00DA6812F0010F36D123681A6912F0800F0F
:101BDC0003D0DA6812F0800F34D123681A6912F03E
:101BEC00400F03D0DA6812F0400F32D123681A6923
:101BFC0012F0200F03D0DA6812F0200F30D110BD94
:101C0C00FFF774FF2046FFF773FF8AE72046FFF7C4
:101C1C006DFF2046FFF76CFF9BE72046FFF766FF42
:101C2C002046FFF765FFACE72046FFF75FFF204635
:101C3C00FFF75EFFBDE76FF001021A612046FEF769
:101C4C00E3FCC1E76FF080021A61204600F093F9C3
:101C5C00C3E76FF040021A612046FFF74AFFC5E761
:101C6C006FF020021A61204600F084F9C7E70000EB
:101C7C0003681B4A90420AD0B0F1804F07D0A2F5FE
:101C8C009432904203D002F58062904203D123F04B
:101C9C0070034A681343124A90420AD0B0F1804F45
:101CAC0007D0A2F59432904203D002F580629042A4
:101CBC0003D123F44073CA68134323F080034A69A9
:101CCC00134303608B68C3620B688362044B9842B6
:101CDC0002D00123436170470B690363F9E700BF2E
:101CEC00002C014040B310B5044690F83D30F3B1E0
:101CFC00022384F83D30214651F8040BFFF7B8FF5E
:101D0C00012384F8463084F83E3084F83F3084F860
:101D1C00403084F8413084F8423084F8433084F801
:101D2C00443084F8453084F83D30002010BD80F8F4
:101D3C003C30FEF753FDDBE70120704710B484689C
:101D4C0024F47F4442EA03220A432243826010BCFB
:101D5C00704790F83C30012B66D010B50446012337
:101D6C0080F83C30022380F83D300268936823F4FD
:101D7C007F4323F0770393600B68602B40D022D80D
:101D8C00402B47D00BD9502B0ED1CA68496800683C
:101D9C00FFF74AFE50212068FFF76BFE04E0202B72
:101DAC000CD008D9302B09D0012384F83D30002009
:101DBC0084F83C0010BD0BB1102BF5D119462068EE
:101DCC00FFF757FEF0E7702B0ED0B3F5005FEBD1A9
:101DDC00CB684A6889680068FFF7B0FF226893688F
:101DEC0043F480439360DFE7CB684A6889680068F6
:101DFC00FFF7A4FF2268936843F077039360D3E75F
:101E0C00CA6849680068FFF721FE60212068FFF767
:101E1C0030FEC9E7CA6849680068FFF705FE402133
:101E2C002068FFF726FEBFE70220704710B5046854
:101E3C00A26822F070024B68134323F007030A6870
:101E4C001343A3604B68602B2CD00CD8402B14D0C0
:101E5C00502B06D10A6989680068FFF7E5FD002060
:101E6C0028E0002026E0702B23D10B698A68C96812
:101E7C000068FFF763FF00201CE00B68052B1AD0ED
:101E8C0003681C6A1A6A22F001021A6202689369DA
:101E9C0023F0F003096943EA0113936103681C62A0
:101EAC00002007E00A6989680068FFF7CFFD002071
:101EBC0000E0002010BD0120FCE790F83C30012B25
:101ECC0022D010B50446012380F83C30022380F860
:101EDC003D30FFF7ABFF80B92268D36823F0400395
:101EEC00D3602268D36823F48043D360012384F841
:101EFC003D30002384F83C3010BD012084F83D00B7
:101F0C00002384F83C30F7E70220704790F83C300F
:101F1C00012B2BD030B4012380F83C30022380F805
:101F2C003D3003685C689D6824F070040A682243A5
:101F3C005A6003680E4A93420AD0B3F1804F07D01F
:101F4C00A2F59432934203D002F58062934204D1FD
:101F5C0025F080054A6815439D60012380F83D30CB
:101F6C00002380F83C30184630BC70470220704784
:101F7C00002C01407047704710B504460268136985
:101F8C0023F44053C1680B43136183680269134304
:101F9C0042691A430168CB6823F4B05323F00C0355
:101FAC001343CB600268536923F4407381690B437C
:101FBC0053610268124B9A421FD0FFF77FFA00EB75
:101FCC00800303EB830362689200B3FBF2F20D48CB
:101FDC00A0FB02314909642303FB11231B0132339B
:101FEC00A0FB03235B0903F0F00202EB011203F0E8
:101FFC000F03216813448B6010BDFFF76FFADEE707
:10200C00003801401F85EB5158B310B5044690F8C9
:10201C0039300BB3242384F839302268D36823F485
:10202C000053D3602046FFF7A7FF2268136923F4FF
:10203C00904313612268536923F02A035361226889
:10204C00D36843F40053D3600020E063202384F86A
:10205C00393084F83A3010BD80F83830FEF7D2FBB6
:10206C00D8E7012070477047002856D010B50446B9
:10207C00436A33B94368B3F5827F05D00023C3614B
:10208C0002E00023036143610023A36294F8513002
:10209C00002B3CD0022384F851302268136823F0C3
:1020AC0040031360636803F48273A26802F4044271
:1020BC001343E26802F400621343226902F0020245
:1020CC001343626902F001021343A26902F4007225
:1020DC001343E26902F038021343226A02F08002D1
:1020EC001343A26A02F40052216813430B60638B02
:1020FC00226803F0040353602268D36923F400635D
:10210C00D36100206065012384F8513010BD84F840
:10211C0050302046FEF726FBBCE70120704700003C
:10212C00002103E00B4B5B58435004310A480B4B26
:10213C0042189A42F6D30A4A02E0002342F8043BC2
:10214C00084B9A42F9D3FFF78EFF00F00FF8FEF719
:10215C00C3F97047342B00080000002070000020E9
:10216C007000002074020020FEE7000070B500260D
:10217C000C4D0D4C641BA410A64209D100F062FC5E
:10218C0000260A4D0A4C641BA410A64205D170BD52
:10219C0055F8043B98470136EEE755F8043B984751
:1021AC000136F2E72C2B00082C2B00082C2B0008F6
:1021BC00302B00080A44914200F1FF3300D17047E4
:1021CC0010B511F8014B914203F8014FF9D110BD34
:1021DC000EB46FF0004100B59CB01DAB02900690A0
:1021EC00079104910848094953F8042B059100689C
:1021FC0002A9019300F0C4F80022029B1A701CB0D3
:10220C005DF804EB03B070470C0000200802FFFFE0
:10221C0070477047F8B5CD1C25F0030508350C2D1B
:10222C0038BF0C25002D064601DBA94203D90C232F
:10223C0033600020F8BD00F071FB21490A68144698
:10224C009CB9204F3B6823B92146304600F02EFB49
:10225C0038602946304600F029FB431C23D10C235F
:10226C003046336000F060FBE3E723685B1B17D458
:10227C000B2B03D923601C44256004E06368A24245
:10228C000CBF0B605360304600F04EFB04F10B00AA
:10229C00231D20F00700C21ACCD01B1AA350C9E78B
:1022AC0022466468CCE7C41C24F00304A042E3D0AB
:1022BC00211A304600F0FAFA0130DDD1CFE700BF29
:1022CC008C000020900000202DE9F0478E6882469B
:1022DC009E420C4690461F4638D88A8912F4906F5D
:1022EC0032D0256809690133A5EB010965694B44B6
:1022FC0005EB450505EBD5756D109D4238BF1D46A8
:10230C00530531D52946FFF785FF064650B90C23F6
:10231C004FF0FF30CAF80030A38943F04003A3818B
:10232C00BDE8F0874A462169FFF744FFA38923F4EF
:10233C00906343F08003A38126614E4426603E46A1
:10234C006561A5EB0905A560BE4200D93E46324643
:10235C004146206800F0C8FAA36822689B1B3244EF
:10236C000020A3602260DBE72A4600F02FFB064624
:10237C000028E1D15046216900F0DCFAC7E70000E3
:10238C002DE9F04F98468B8907461B060D461446DF
:10239C009DB00ED50B6963B94021FFF73BFF286058
:1023AC00286120B90C233B604FF0FF30D1E0402373
:1023BC006B610023099320238DF8293030234FF0D3
:1023CC000109CDF80C80DFF8A4818DF82A30234662
:1023DC009A4613F8012B0AB1252AF9D1BAEB040B52
:1023EC000BD05B46224629463846FFF76DFF01307D
:1023FC0000F0AA80099A5A4409929AF80030002BEE
:10240C0000F0A28000234FF0FF32CDE905230AF142
:10241C00010A049307938DF853301A9354460522FE
:10242C0014F8011B514800F051FA049AD8B9D0069F
:10243C0044BF20238DF85330110744BF2B238DF854
:10244C0053309AF800302A2B15D0544600204FF008
:10245C000A0C079A214611F8013B303B092B4ED947
:10246C00B0B1079214E0A0EB080309FA03F313438D
:10247C00A2460493D2E7039B191D1B680391002B02
:10248C00BBBF5B4242F0020207930793B8BF0492B2
:10249C0023782E2B0CD163782A2B35D1039B023455
:1024AC001A1D1B680392002BB8BF4FF0FF33059326
:1024BC00DFF8C8A003225046217800F007FA40B19B
:1024CC004023A0EB0A0003FA00F0049B0134034301
:1024DC00049314F8011B062225488DF8281000F0EF
:1024EC00F5F9002838D0234B1BBB039B073323F093
:1024FC00070308330393099B3344099367E70C469E
:10250C0001200CFB0232A5E700234FF00A0C194600
:10251C0001340593204610F8012B303A092A03D9CF
:10252C00002BC5D00591C3E7044601230CFB012108
:10253C00F0E703AB00932A4638460F4B04A9AFF3E0
:10254C000080421C0646D6D1AB895B063FF52CAF0A
:10255C0009981DB0BDE8F08F03AB00932A463846AE
:10256C00054B04A900F07CF8EBE700BFF82A000843
:10257C00022B000800000000D5220008FE2A0008EB
:10258C002DE9F047164699468A680B69074693422F
:10259C00B8BF1346336091F843200C46DDF8208019
:1025AC000AB1013333602368990642BF33680233A2
:1025BC003360256815F0060506D104F1190AE368A5
:1025CC0032689B1AAB4228DC94F84320131E226815
:1025DC0018BF012392062DD44946384604F1430214
:1025EC00C047013020D02368E56803F00603042BB4
:1025FC0018BF002532684FF00006A36808BFAD1A5B
:10260C00226908BF25EAE5759342C4BF9B1AED18F1
:10261C001A34B5421AD1002008E00123524649462B
:10262C003846C047013003D14FF0FF30BDE8F0878A
:10263C000135C4E73020E11881F843005A1C94F8A6
:10264C0045102244023382F84310C5E70123224689
:10265C0049463846C0470130E6D00136D9E700007C
:10266C002DE9FF470C46277E9146782F80469A46E7
:10267C000C9904F1430207D8622F0AD8002F00F0FE
:10268C00D980582F00F0A48004F1420684F84270DF
:10269C003AE0A7F16303152BF6D801A050F823F00C
:1026AC00052700081927000895260008952600081C
:1026BC00952600089526000819270008952600087D
:1026CC00952600089526000895260008272800085E
:1026DC0049270008092800089526000895260008B7
:1026EC004928000895260008492700089526000867
:1026FC0095260008112800080B6804F142061A1DE3
:10270C001B680A6084F842300123A4E0256808683D
:10271C002E0600F104030AD505680B60002D03DAC0
:10272C002D236D4284F843300A235E4819E015F0DE
:10273C00400F05680B6018BF2DB2EFE70B682568DA
:10274C00181D0860280601D51D6802E06906FBD536
:10275C001D886F2F0CBF08230A235248002184F8D0
:10276C0043106668002EA8BF2168A660A4BF21F0A4
:10277C00040121600DB9002E4DD01646B5FBF3F1C6
:10278C0003FB1157C75D06F8017D2F46BB420D4672
:10279C00F4D9082B0BD12368DF0708D523696168AE
:1027AC009942DEBF302306F8013C06F1FF36921B3E
:1027BC0022614B4621464046CDF800A003AAFFF704
:1027CC00DFFE01304CD14FF0FF3004B0BDE8F08794
:1027DC00344884F845700E68236856F8045B1F066D
:1027EC000E6014D5D90744BF43F0200323601DB9F4
:1027FC00236823F0200323601023AFE7236843F002
:10280C00200323607823284884F84530E3E75E06EC
:10281C0048BFADB2E6E71646BBE70B6826681D1D40
:10282C0060690D6035061B6801D5186002E0710601
:10283C00FBD51880002316462361BAE70B681A1DD6
:10284C000A601E6800213046626800F03FF808B14B
:10285C00801B606063682361002384F84330A8E721
:10286C003246494640462369D0470130ABD02368F5
:10287C009B0713D4E068039B9842B8BF1846A4E7A3
:10288C000123324649464046D04701309BD00135A2
:10289C00E36803995B1AAB42F2DCEBE7002504F129
:1028AC001906F5E7092B00081A2B000838B5002388
:1028BC00054D044608462B6000F0B6F8431C02D1C7
:1028CC002B6803B1236038BD70020020034610B59D
:1028DC00C9B202449342184601D1002003E00478A7
:1028EC0001338C42F6D110BD884210B501EB0204C5
:1028FC0002D98442234607D8431EA14208D011F8BE
:10290C00012B03F8012FF8E7014602448A4200D15B
:10291C0010BD13F8014D02F8014DF7E70148FFF720
:10292C0077BC00BF680200200148FFF772BC00BFF3
:10293C006802002038B50546002943D051F8043C04
:10294C000C1F002BB8BFE418FFF7E8FF1E4A1368F2
:10295C00104633B9636014602846BDE83840FFF771
:10296C00E3BFA3420AD921686218934201BF1A68D7
:10297C005B685218226063600460EDE71A465B687E
:10298C000BB1A342FAD911685018A0420BD12068A0
:10299C000144501883421160DED118685B68014411
:1029AC0011605360D8E702D90C232B60D4E7206860
:1029BC0021188B4201BF19685B680918216063609C
:1029CC005460C9E738BD00BF8C000020F8B507463D
:1029DC0014460E4621B91146BDE8F840FFF71ABC63
:1029EC0022B9FFF7A7FF25462846F8BD00F014F8DA
:1029FC00A0420FD221463846FFF70CFC05460028B2
:102A0C00F2D031462246FFF7D5FB31463846FFF768
:102A1C0091FFE9E73546E7E751F8043C181F002B16
:102A2C00BCBF0B58C0187047044A05491368002BEB
:102A3C0008BF0B46184410601846704794000020DD
:102A4C0078020020F8B500BFF8BC08BC9E46704761
:0C2A5C00F8B500BFF8BC08BC9E467047EF
:102A6800256C690002030405060708090A0B0C0D0A
:102A78000E0F101000000000000000000000000011
:102A8800010203040607080900000000010203040C
:102A9800000000000000000000000000000000002E
:102AA800000000000000000000000000000000001E
:102AB800000000000000000000000000000000000E
:102AC80000000000000000000000000000000000FE
:102AD80000000000000000000000000000000000EE
:102AE80000000000000000000000000000000000DE
:102AF800232D302B2000686C4C00656667454647DF
:102B08000030313233343536373839414243444561
:102B180046003031323334353637383961626364D0
:042B280065660000DE
:042B2C00310100086B
:042B30000D0100088B
:102B340001000000100000000024F4001000002038
:102B440000000000B82A0008D82A0008982A0008C3
:102B54000000000000000000000000000000000071
:102B64000000000000000000000000000000000061
:102B74000000000000000000000000000000000051
:102B84000000000000000000000000000000000041
:102B94000000000000000000000000000000000031
:040000050800212DA1
:00000001FF
